:100000000C946B0D0C94970D0C94970D0C94970D0C
:100010000C94970D0C94970D0C94970D0C94970DD0
:100020000C94970D0C94970D0C94970D0C94970DC0
:100030000C94970D0C94970D0C94970D0C94970DB0
:100040000C94970D0C94970D0C94970D0C94970DA0
:100050000C94970D0C94970D0C94970D0C94B3156C
:100060000C94970D0C94DA170C94BA180C94970D05
:100070000C94970D0C94970D0C94970D0C94970D70
:100080000C94970D0C94970D0C94970D0C94970D60
:100090000C9412180C94F9180C94970D0C94970D5D
:1000A0000C94970D0C94970D0C94970D0C94970D40
:1000B0000C94970D0C94970D0C94970D0C94970D30
:1000C0000C94970D0C94970D0C94970D0C944A1862
:1000D0000C9438190C94970D0C9482180C94771981
:1000E0000C94970D1A23402371238B238B238B238E
:1000F000A7235A241A235A24D2235A24E523E5237A
:100100000C240C247123862486247123E5235A248D
:100110008B2322245A245A245A245A245A2443240E
:100120005A245A24F32E8E30B331A932E633E63303
:10013000C1352937D13C3638293A963A5E3E673F79
:1001400018411841B331114A114AB3313A401842AB
:100150002C35E142B143B845DF447146B8471249F6
:100160002749CF3805A84CCDB2D44EB93836A902AC
:100170000C50B9918688083CA6AAAA2ABE000000A5
:10018000803F00002100240027002A002D003000BD
:10019000330001010000040107010A0100002200F0
:1001A000250028002B002E00310034000201000041
:1001B000050108010B010000200023002600290092
:1001C0002C002F003200000100000301060109018C
:1001D00005050505070508080808020202020A0AC3
:1001E00008080404040401010101010101010303E1
:1001F000030303030303040707070C0C0C0C0C0C8C
:100200000C0C0202020206060606060606060B0B88
:100210000B0B0B0B0B0B01021020200808102040C9
:1002200010204080020102010804020101020408BA
:100230001020408080402010080402018004020148
:100240008040201008040201080402010102040891
:100250001020408001020408102040800000090A9C
:1002600002080B0C0D07060304010000000000004B
:10027000000000000000000000000000000000007E
:10028000000000000000000011100F00000000003E
:10029000000000000000000000000000000000005E
:1002A0000000080C205F00000000000000000000BB
:1002B0000000000020202020202000200000002836
:1002C0005050000000000000000000002828FC281A
:1002D00050FC50500000002078A8A0603028A8F002
:1002E0002000000048A8B050283454480000000006
:1002F00020505078A8A8906C00000040408000007A
:100300000000000000000004081010101010100879
:1003100004000040201010101010102040000000B9
:100320000020A87070A8200000000000202020F805
:10033000202020000000000000000000000000401D
:1003400040800000000000F80000000000000000F5
:100350000000000000000040000000081010102005
:10036000204040408000000070888888888888701D
:1003700000000000206020202020207000000000ED
:1003800070888810204080F80000000070880830D5
:100390000808887000000000103050509078101845
:1003A00000000000F88080F008088870000000005D
:1003B000709080F08888887000000000F89010200D
:1003C00020202020000000007088887088888870B5
:1003D00000000000708888887808487000000000DD
:1003E00000002000000000200000000000000020AD
:1003F0000000002020000004081020402010080405
:10040000000000000000F80000F8000000000040BC
:100410002010080408102040000000007088881098
:100420002020002000000000708898A8A8B88078DC
:100430000000000020203050507848CC0000000020
:10044000F0484870484848F00000000078888080F4
:100450008080887000000000F0484848484848F014
:1004600000000000F8485070504048F800000000BC
:10047000F8485070504040E000000000384880804C
:100480009C88483000000000CC484878484848CC58
:1004900000000000F8202020202020F800000000AC
:1004A0007C10101010101090E0000000EC4850601C
:1004B000505048EC00000000E0404040404044FC08
:1004C00000000000D8D8D8D8A8A8A8A8000000002C
:1004D000DC486868585848E8000000007088888840
:1004E0008888887000000000F0484870404040E074
:1004F000000000007088888888E898701800000064
:10050000F0484870504848EC00000000788880604F
:10051000100888F000000000F8A82020202020709B
:1005200000000000CC48484848484830000000001F
:10053000CC4848505030202000000000A8A8A870E7
:100540005050505000000000D8505020205050D83B
:1005500000000000D8505020202020700000000033
:10056000F8901020204048F800000038202020207B
:10057000202020203800004040402020101010088B
:1005800000000070101010101010101070000020EB
:10059000500000000000000000000000000000000B
:1005A0000000000000FC002000000000000000002F
:1005B00000000000000000304838483C0000000007
:1005C000C0404070484848700000000000000038FB
:1005D0004840403800000000180808384848483CA7
:1005E00000000000000000304878403800000000A3
:1005F0001C20207820202078000000000000003C13
:100600004830407844380000C0404070484848ECCA
:10061000000000002000006020202070000000008A
:10062000100000301010101010E00000C040405CBE
:10063000507048EC00000000E0202020202020F82E
:1006400000000000000000F0A8A8A8A8000000001A
:10065000000000F0484848EC0000000000000030B6
:100660004848483000000000000000F0484848704A
:1006700040E000000000003848484838081C0000EE
:10068000000000D8604040E000000000000000785A
:100690004030087800000000002020702020201842
:1006A00000000000000000D84848483C000000005E
:1006B000000000EC4850302000000000000000A8BE
:1006C000A870505000000000000000D8502050D802
:1006D00000000000000000EC4850302020C0000066
:1006E0000000007810202078000000181010102062
:1006F0001010101018001010101010101010101002
:10070000101000602020201020202020600040A435
:10071000180000000000000000001010205F000022
:1007200000000000000000000000000000000000C9
:1007300000000000000000000000000000000000B9
:10074000000007000F800F800F800F800F800700D0
:10075000070000000000070007000700000000007D
:100760000E380E380E380E3806300000000000003B
:100770000000000000000000000000000000000079
:100780000C300C300C307FFE7FFE0C300C300C3007
:100790000C307FFE7FFE0C300C300C30000000006F
:1007A000024002400FF81FF81A401A401FF00FF8DD
:1007B000025802581FF81FF00240024000000000DB
:1007C000000000000E100E300E7000E001C003802B
:1007D00007000E700C7008700000000000000000A0
:1007E00000000F001980198019800F000F080F9862
:1007F00019F818F018E019F00F9800000000000038
:1008000000000700070007000E00000000000000C5
:1008100000000000000000000000000000000000D8
:10082000000000F001C0038007000E000E000E0063
:100830000E000700038001C000F00000000000006F
:1008400000000F00038001C000E000700070007025
:10085000007000E001C003800F00000000000000F5
:10086000000001801188099007E007E03FFC3FFC91
:1008700007E007E0099011880180000000000000F7
:100880000000000000000180018001800FF00FF0E7
:1008900001800180018000000000000000000000D5
:1008A0000000000000000000000000000000000048
:1008B000000000000700070007000E000000000015
:1008C0000000000000000000000000001FF81FF8FA
:1008D0000000000000000000000000000000000018
:1008E0000000000000000000000000000000000008
:1008F00000000000070007000700000000000000E3
:10090000000000020006000E001C0038007000E02D
:1009100001C0038007000E001C0000000000000062
:1009200000000FF01C381C781CF81CF81DB81DB80E
:100930001F381F381E381C380FF000000000000060
:1009400000000180018003801F801F8003800380DE
:1009500003800380038003801FF00000000000007C
:1009600000000FE01C701C380038007000E001C06F
:10097000038007000E381C381FF80000000000003C
:1009800000000FE01C701C380038007003C003C06A
:10099000007000381C381C700FE0000000000000E0
:1009A000000000E001E003E006E00CE018E01FF8C2
:1009B0001FF800E000E000E003F800000000000085
:1009C00000001FF81C001C001C001C001FE01FF092
:1009D000007800381C381C700FE000000000000098
:1009E000000003E007000E001C001C001FF01FF8B1
:1009F0001C381C381C381C380FF0000000000000A8
:100A000000001FFC1C1C1C1C1C1C001C003800705F
:100A100000E001C0038003800380000000000000AC
:100A200000000FF01C381C381C381F3807E007E0A6
:100A30001CF81C381C381C380FF0000000000000A7
:100A400000000FF01C381C381C381C381FF80FF839
:100A500000380038007000E007C00000000000000F
:100A600000000000000003800380038000000000FD
:100A700003800380038000000000000000000000ED
:100A800000000000000003800380038000000000DD
:100A900003800380038007000000000000000000C6
:100AA000007000E001C0038007000E001C001C0065
:100AB0000E000700038001C000E00070000000008D
:100AC00000000000000000003FFC3FFC00000000B0
:100AD0003FFC3FFC000000000000000000000000A0
:100AE0001C000E000700038001C000E000700070D1
:100AF00000E001C0038007000E001C0000000000A1
:100B000003C00FF01E7818380038007000E001C0F4
:100B100001C00000000001C001C001C000000000D1
:100B20000FF81C1C1C1C1C1C1C1C1CFC1CFC1CFC96
:100B30001CFC1C001C001C001FF007F8000000003B
:100B4000000003C007E00E701C381C381C381C382D
:100B50001FF81C381C381C381C380000000000002E
:100B600000001FF00E380E380E380E380FF00FF060
:100B70000E380E380E380E381FF00000000000004E
:100B8000000007F00E381C381C001C001C001C0064
:100B90001C001C001C380E3807F00000000000008C
:100BA00000001FE00E700E380E380E380E380E386A
:100BB0000E380E380E380E701FE0000000000000E6
:100BC00000001FF80E180E080E000E300FF00FF088
:100BD0000E300E000E080E181FF800000000000076
:100BE00000001FF80E180E080E000E300FF00FF068
:100BF0000E300E000E000E001F000000000000006E
:100C0000000007F00E381C381C381C001C001C00AB
:100C10001CF81C381C380E3807F8000000000000D3
:100C200000001C701C701C701C701C701FF01FF0EA
:100C30001C701C701C701C701C70000000000000F8
:100C400000000FE0038003800380038003800380A3
:100C500003800380038003800FE000000000000099
:100C6000000001FC007000700070007000700070E7
:100C700038703870387038700FE0000000000000E5
:100C800000001E380E380E700EE00FC00F800F806F
:100C90000FC00EE00E700E381E380000000000007D
:100CA00000001F000E000E000E000E000E000E00D1
:100CB0000E000E080E180E381FF80000000000008D
:100CC00000001C1C1E3C1F7C1FFC1FFC1DDC1C9C10
:100CD0001C1C1C1C1C1C1C1C1C1C000000000000FC
:100CE00000001C1C1C1C1E1C1F1C1F9C1DDC1CFC53
:100CF0001C7C1C3C1C1C1C1C1C1C0000000000005C
:100D0000000003E007F00E381C1C1C1C1C1C1C1CE3
:100D10001C1C1C1C0E3807F003E000000000000043
:100D200000001FF00E380E380E380E380FF00FF09E
:100D30000E000E000E000E001F000000000000005C
:100D4000000003E00F780E381C1C1C1C1C1C1C1C13
:100D50001C7C1CFC0FF80FF8003800FC00000000A1
:100D600000001FF00E380E380E380E380FF00FF05E
:100D70000E700E380E380E381E38000000000000CD
:100D800000000FF01C381C381C381C000FE007F066
:100D900000381C381C381C380FF000000000000020
:100DA00000001FFC19CC11C401C001C001C001C06A
:100DB00001C001C001C001C007F000000000000038
:100DC00000001C701C701C701C701C701C701C704F
:100DD0001C701C701C701C700FE0000000000000F4
:100DE00000001C701C701C701C701C701C701C702F
:100DF0001C701C700EE007C00380000000000000A3
:100E000000001C1C1C1C1C1C1C1C1C1C1C9C1C9C5A
:100E10001C9C0FF80FF8077007700000000000001E
:100E200000001C701C701C700EE007C00380038063
:100E300007C00EE01C701C701C7000000000000059
:100E400000001C701C701C701C701C700EE007C031
:100E500003800380038003800FE000000000000097
:100E600000001FF81C381838107000E001C0038023
:100E700007000E081C181C381FF8000000000000B6
:100E8000000007F007000700070007000700070041
:100E9000070007000700070007F00000000000003F
:100EA0000000100018001C000E000700038001C0A5
:100EB00000E000700038001C000700000000000087
:100EC000000007F00070007000700070007000708B
:100ED000007000700070007007F00000000000005B
:100EE000018003C007E00E701C3800000000000005
:100EF00000000000000000000000000000000000F2
:100F000000000000000000000000000000000000E1
:100F1000000000000000000000007FFF7FFF0000D5
:100F200000001C001C00070007000000000000007B
:100F300000000000000000000000000000000000B1
:100F4000000000000000000000000FE000700070D2
:100F50000FF01C701C701C700FD800000000000007
:100F600000001E000E000E000E000FF00E380E38AE
:100F70000E380E380E380E381BF00000000000004E
:100F8000000000000000000000000FE01C701C705A
:100F90001C001C001C701C700FE000000000000012
:100FA000000000F80070007000700FF01C701C70E2
:100FB0001C701C701C701C700FD80000000000001A
:100FC000000000000000000000000FE01C701C701A
:100FD0001FF01C001C701C700FE0000000000000DF
:100FE000000003E007700770070007001FE01FE024
:100FF00007000700070007001FC0000000000000F6
:10100000000000000000000000000FD81C701C70E1
:101010001C701C700FF007F000701C700FE00000D7
:1010200000001E000E000E000E000EF00F380F38EC
:101030000E380E380E380E381E3800000000000042
:10104000000001C001C001C000000FC001C001C00C
:1010500001C001C001C001C00FF800000000000085
:101060000000007000700070000003F0007000705D
:1010700000700070007000701C700CF007E0000041
:1010800000001E000E000E000E000E380E700EE066
:101090000FC00EE00E700E381E3800000000000079
:1010A00000000FC001C001C001C001C001C001C0EB
:1010B00001C001C001C001C00FF800000000000025
:1010C000000000000000000000001FF81C9C1C9C99
:1010D0001C9C1C9C1C9C1C9C1C9C00000000000078
:1010E000000000000000000000001FE01C701C70E9
:1010F0001C701C701C701C701C7000000000000034
:10110000000000000000000000000FE01C701C70D8
:101110001C701C701C701C700FE0000000000000B0
:10112000000000000000000000001BF00E380E3828
:101130000E380E380E380FF00E000E001F000000A3
:10114000000000000000000000001FB038E038E0A0
:1011500038E038E038E01FE000E000E001F0000097
:10116000000000000000000000001EF00FF80F3823
:101170000E000E000E000E001F0000000000000018
:10118000000000000000000000000FE01C301C30D8
:101190000F8003E0187018700FE0000000000000DE
:1011A000000000000100030007001FF00700070017
:1011B000070007000770077003E000000000000050
:1011C000000000000000000000001C701C701C707B
:1011D0001C701C701C701C700FD8000000000000F8
:1011E000000000000000000000001C701C701C705B
:1011F0001C701C700EE007C003800000000000009F
:10120000000000000000000000001C1C1C1C1C1C36
:101210001C9C1C9C0FF80770077000000000000069
:10122000000000000000000000001CE01CE00FC0F7
:10123000078007800FC01CE01CE0000000000000D9
:10124000000000000000000000000E380E380E38CC
:101250000E380E3807F003E000E001C01F800000E8
:10126000000000000000000000001FE018E011C0B6
:10127000038007000E201C601FE00000000000003B
:10128000000001F803800380038007001C001C009D
:10129000070003800380038001F8000000000000C5
:1012A00001C001C001C001C001C001C001C001C036
:1012B00001C001C001C001C001C001C000000000A8
:1012C00000001F8001C001C001C000E000380038EC
:1012D00000E001C001C001C01F800000000000004C
:1012E00000001F1C3B9C39DC38F8000000000000A7
:1012F000000000000000000000000000000020329C
:10130000300A000000000000000000FFFE0001FFA6
:10131000FF0003FFFF8001FFFF600CFFFEF01E00D7
:1013200001F83F0001F83F0001F83F0001F83F00DD
:1013300001F83F0001F83F0001F83F0001F83F00CD
:1013400001F83F0001F83F0001F83F0001F83F00BD
:1013500001F83F0001F83E00007838000018200036
:1013600000080000000020000000380000183E00C7
:1013700000783F0001F83F0001F83F0001F83F000E
:1013800001F83F0001F83F0001F83F0001F83F007D
:1013900001F83F0001F83F0001F83F0001F83F006D
:1013A00001F83F0001F83F0001F81E0000F00CFFBB
:1013B000FE6001FFFF0003FFFF8001FFFF0000FF51
:1013C000FE0000000000000000000000000000001F
:1013D000000000000000000000000000000000000D
:1013E0000060000000F0000001F8000001F80000BB
:1013F00001F8000001F8000001F8000001F8000009
:1014000001F8000001F8000001F8000001F80000F8
:1014100001F8000001F8000001F8000001F80000E8
:101420000078000000180000000800000000000024
:1014300000000000001800000078000001F8000023
:1014400001F8000001F8000001F8000001F80000B8
:1014500001F8000001F8000001F8000001F80000A8
:1014600001F8000001F8000001F8000001F8000098
:1014700001F8000000F00000006000000000000023
:10148000000000000000000000000000000000005C
:101490000000000000000000000000FFFE0001FF4F
:1014A000FF0003FFFF8001FFFF6000FFFEF0000070
:1014B00001F8000001F8000001F8000001F8000048
:1014C00001F8000001F8000001F8000001F8000038
:1014D00001F8000001F8000001F8000001F8000028
:1014E00001F8000001F80000007801FFFE1803FF7A
:1014F000FF880FFFFFE027FFFFC039FFFF003E001E
:1015000000003F0000003F0000003F0000003F00DF
:1015100000003F0000003F0000003F0000003F00CF
:1015200000003F0000003F0000003F0000003F00BF
:1015300000003F0000003F0000001E0000000CFF04
:10154000FE0001FFFF0003FFFF8001FFFF0000FF1F
:10155000FE0000000000000000000000000000008D
:10156000000000FFFE0001FFFF0003FFFF8001FFFE
:10157000FF6000FFFEF0000001F8000001F800002D
:1015800001F8000001F8000001F8000001F8000077
:1015900001F8000001F8000001F8000001F8000067
:1015A00001F8000001F8000001F8000001F8000057
:1015B000007801FFFE1803FFFF880FFFFFE007FF21
:1015C000FFC001FFFF1800000078000001F80000D4
:1015D00001F8000001F8000001F8000001F8000027
:1015E00001F8000001F8000001F8000001F8000017
:1015F00001F8000001F8000001F8000001F8000007
:1016000001F8000000F000FFFE6001FFFF0003FF93
:10161000FF8001FFFF0000FFFE000000000000004F
:1016200000000000000000000000000000000000BA
:10163000000000000000000000600C0000F01E0030
:1016400001F83F0001F83F0001F83F0001F83F00BA
:1016500001F83F0001F83F0001F83F0001F83F00AA
:1016600001F83F0001F83F0001F83F0001F83F009A
:1016700001F83F0001F83E00007839FFFE1823FF13
:10168000FF880FFFFFE007FFFFC001FFFF1800000A
:101690000078000001F8000001F8000001F80000E7
:1016A00001F8000001F8000001F8000001F8000056
:1016B00001F8000001F8000001F8000001F8000046
:1016C00001F8000001F8000001F8000000F000003F
:1016D00000600000000000000000000000000000AA
:1016E00000000000000000000000000000000000FA
:1016F000000000FFFE0001FFFF0003FFFF8001FF6D
:10170000FF000CFFFE001E0000003F0000003F0035
:1017100000003F0000003F0000003F0000003F00CD
:1017200000003F0000003F0000003F0000003F00BD
:1017300000003F0000003F0000003F0000003E00AE
:10174000000039FFFE0023FFFF800FFFFFE007FFCF
:10175000FFC001FFFF1800000078000001F8000042
:1017600001F8000001F8000001F8000001F8000095
:1017700001F8000001F8000001F8000001F8000085
:1017800001F8000001F8000001F8000001F8000075
:1017900001F8000000F000FFFE6001FFFF0003FF02
:1017A000FF8001FFFF0000FFFE00000000000000BE
:1017B0000000000000000000000000FFFE0001FF2C
:1017C000FF0003FFFF8001FFFF000CFFFE001E0073
:1017D00000003F0000003F0000003F0000003F000D
:1017E00000003F0000003F0000003F0000003F00FD
:1017F00000003F0000003F0000003F0000003F00ED
:1018000000003F0000003E00000039FFFE0023FF03
:10181000FF800FFFFFE027FFFFC039FFFF183E00EA
:1018200000783F0001F83F0001F83F0001F83F0059
:1018300001F83F0001F83F0001F83F0001F83F00C8
:1018400001F83F0001F83F0001F83F0001F83F00B8
:1018500001F83F0001F83F0001F81E0000F00CFF06
:10186000FE6001FFFF0003FFFF8001FFFF0000FF9C
:10187000FE0000000000000000000000000000006A
:10188000000000FFFE0001FFFF0003FFFF8001FFDB
:10189000FF6000FFFEF0000001F8000001F800000A
:1018A00001F8000001F8000001F8000001F8000054
:1018B00001F8000001F8000001F8000001F8000044
:1018C00001F8000001F8000001F8000001F8000034
:1018D0000078000000180000000800000000000070
:1018E00000000000001800000078000001F800006F
:1018F00001F8000001F8000001F8000001F8000004
:1019000001F8000001F8000001F8000001F80000F3
:1019100001F8000001F8000001F8000001F80000E3
:1019200001F8000000F0000000600000000000006E
:1019300000000000000000000000000000000000A7
:101940000000000000000000000000FFFE0001FF9A
:10195000FF0003FFFF8001FFFF600CFFFEF01E0091
:1019600001F83F0001F83F0001F83F0001F83F0097
:1019700001F83F0001F83F0001F83F0001F83F0087
:1019800001F83F0001F83F0001F83F0001F83F0077
:1019900001F83F0001F83E00007839FFFE1823FFF0
:1019A000FF880FFFFFE027FFFFC039FFFF183E0051
:1019B00000783F0001F83F0001F83F0001F83F00C8
:1019C00001F83F0001F83F0001F83F0001F83F0037
:1019D00001F83F0001F83F0001F83F0001F83F0027
:1019E00001F83F0001F83F0001F81E0000F00CFF75
:1019F000FE6001FFFF0003FFFF8001FFFF0000FF0B
:101A0000FE000000000000000000000000000000D8
:101A1000000000FFFE0001FFFF0003FFFF8001FF49
:101A2000FF600CFFFEF01E0001F83F0001F83F00D0
:101A300001F83F0001F83F0001F83F0001F83F00C6
:101A400001F83F0001F83F0001F83F0001F83F00B6
:101A500001F83F0001F83F0001F83F0001F83E00A7
:101A6000007839FFFE1823FFFF880FFFFFE007FF14
:101A7000FFC001FFFF1800000078000001F800001F
:101A800001F8000001F8000001F8000001F8000072
:101A900001F8000001F8000001F8000001F8000062
:101AA00001F8000001F8000001F8000001F8000052
:101AB00001F8000000F000FFFE6001FFFF0003FFDF
:101AC000FF8001FFFF0000FFFE000000000000009B
:101AD0000000990DE11A11241FBECFEFD1E2DEBF45
:101AE000CDBF00E00CBF12E0A0E0B2E0E4EAF0EA13
:101AF00000E00BBF02C007900D92AE3EB107D9F7D0
:101B000015E0AEEEB2E001C01D92A23DB107E1F7D3
:101B10001AE1C6EDDAE104C02297FE010E944C50A2
:101B2000C23DD107C9F70E9448130C944C4D0C9448
:101B30000000CF92DF92EF92FF920F931F938EEEF1
:101B400092E062E046E250E027E230E008E210E096
:101B500079E2E72EF12CCC24DD240E94244A8FE187
:101B600093E066E045E024E003E032E0E32E0E94EB
:101B7000CD4B1F910F91FF90EF90DF90CF90089584
:101B8000AF92BF92CF92DF92EF92FF920F931F938B
:101B9000CF93DF938C017B016A0159018FE193E0C0
:101BA0000E94A44C8FE193E00E94D84BEC018FE19E
:101BB00093E00E94034CC017D10764F0EC16FD06B9
:101BC0004CF08C159D0534F020E0A816B9061CF0E9
:101BD00021E001C020E0822FDF91CF911F910F9172
:101BE000FF90EF90DF90CF90BF90AF9008950F934C
:101BF0001F938FE193E00E944C4C8823D1F38FE137
:101C000093E00E94A44C8FE193E00E94D84B182FE0
:101C1000092F8FE193E00E94034CAC0144974F974A
:101C200008F03FC0212F302FC90105974F9710F4BE
:101C300081E4BAC0C90188974F9710F482E4B4C018
:101C4000C9018B5490404F9710F483E4ADC0C90193
:101C50008E5690404F9710F484E4A6C0C901815974
:101C600090404F9710F485E49FC0C901845B904079
:101C70004F9710F486E498C0C901875D90404F9754
:101C800010F487E491C0C9018A5F90404F9710F427
:101C900088E48AC02D5131402F31310510F489E498
:101CA00083C0CA018B5490404F9708F03FC0212F4A
:101CB000302FC90105974F9710F48AE475C0C90108
:101CC00088974F9710F48BE46FC0C9018B549040F4
:101CD0004F9710F48CE468C0C9018E5690404F971E
:101CE00010F48DE461C0C901815990404F9710F400
:101CF0008EE45AC0C901845B90404F9710F48FE482
:101D000053C0C901875D90404F9710F480E54CC0E7
:101D1000C9018A5F90404F9710F481E545C02D516D
:101D200031402F31310510F482E53EC04258504019
:101D30004F31510508F05DCF212F302FC901469753
:101D40004F9710F483E530C0C901C9974F9710F43D
:101D500084E52AC0C9018C5590404F9710F485E561
:101D600023C0C9018F5790404F9710F486E51CC0DF
:101D7000C901825A90404F9710F487E515C0C901F8
:101D8000855C90404F9710F488E50EC0C901885ECD
:101D900090404F9710F489E507C02B5031402F3108
:101DA000310508F026CF8AE51F910F9108950F9312
:101DB0001F93CF93DF93C0E0D0E081E00E947F15B6
:101DC000817090700C2E02C0880F991F0A94E2F760
:101DD0000827192764E170E080E090E00E9409166E
:101DE0002196C031D10549F7C801DF91CF911F91EC
:101DF0000F9108950F931F93DF93CF93CDB7DEB765
:101E00002A970FB6F894DEBF0FBECDBF8EEE92E0DC
:101E100040E050E060E070E00E940326DE01119691
:101E2000E0E0F2E08AE001900D928150E1F78EEE61
:101E300092E060E078EF0E94FF258EEE92E0BE0116
:101E40006F5F7F4F48E550E020E730E000E010E0B2
:101E50000E94CC2C83E08093370210922A0388EEF4
:101E600093E0A0E0B0E08093380290933902A09311
:101E70003A02B0933B0268EB7BE080E090E00E9486
:101E800009168EEE92E060E070E00E94FF258EEE73
:101E900092E068E570E040E750E028EE30E008ECC2
:101EA00010E00E9429272A960FB6F894DEBF0FBED5
:101EB000CDBFCF91DF911F910F9108950F931F9385
:101EC000DF93CF93CDB7DEB7A3970FB6F894DEBFFD
:101ED0000FBECDBFDE011F96EAE0F2E089E001907F
:101EE0000D928150E1F7DE015896E3E1F2E08CE0DB
:101EF00001900D928150E1F78EEE92E06FE170E07B
:101F00000E94FF258EEE92E06EE370E042E350E027
:101F100022E031E00AE510E00E9429278EEE92E0EF
:101F20006EE370E046E850E022E031E00EEA10E0B7
:101F30000E9429278EEE92E06FEF7FEF0E94FF252F
:101F40008EEE92E04FE150E060E070E00E940326E8
:101F50008EEE92E0BE01615F7F4F40E650E02EE3DF
:101F600030E000E010E00E94CC2C8EEE92E0BE014A
:101F7000685E7F4F48E450E022E930E00E94CC2CBC
:101F800085E090E090932C0380932B038EEE92E0FB
:101F900040E050E060E070E00E940326DE01119610
:101FA000EFE1F2E087E001900D928150E1F7DE0170
:101FB0001896E6E2F2E087E001900D928150E1F799
:101FC0008EEE92E06FEF7FEF0E94FF258EEE92E0A3
:101FD000BE016F5F7F4F40EB50E020EE30E000E04D
:101FE00010E00E94CC2C8EEE92E0BE01685F7F4F25
:101FF00040E050E020EE30E00E94CC2CA3960FB6DB
:10200000F894DEBF0FBECDBFCF91DF911F910F912E
:102010000895AF92BF92CF92EF92FF920F931F93CA
:10202000BEEEAB2EB2E0BB2EC50140E050E060E05A
:1020300070E00E940326C5016FEF7FEF0E94FF252D
:1020400040912A0350E060E070E0C50120E131E0FA
:1020500000EE10E0A3E0EA2EF12CF0E2CF2E0E9479
:102060009B2D4091370250E060E070E0C50120E711
:1020700030E0E1E0EE2EF12C0E949B2D1F910F919C
:10208000FF90EF90CF90BF90AF9008956F927F92A6
:102090008F929F92AF92BF92CF92DF92EF92FF9278
:1020A0000F931F93DF93CF93CDB7DEB72F970FB664
:1020B000F894DEBF0FBECDBFDE011496E3E1F2E07F
:1020C0008CE001900D928150E1F78EEE92E06FEF7F
:1020D0007FEF0E94FF258EEE92E0BE016C5F7F4F86
:1020E00040E550E022E330E000E010E00E94CC2C1C
:1020F00088249924B4E7AB2EB12CA3E0DA2E3E015C
:102100000894611C711CF3018D2D11928A95E9F7D9
:10211000C4010E94804F8983C40101960E94804FB0
:102120008A838EEE92E0B30144E850E0950100E02E
:1021300010E00E94CC2CC40102960E94804F482FD0
:1021400050E060E070E08EEE92E025EA30E085013C
:10215000F3E0EF2EF12CE0E2CE2E0E949B2D8E0CB0
:102160009F1CE0E1F0E0AE0EBF1EFFE08F16910471
:1021700051F62F960FB6F894DEBF0FBECDBFCF91AC
:10218000DF911F910F91FF90EF90DF90CF90BF9064
:10219000AF909F908F907F906F9008950F931F93B3
:1021A0008C01FB01808191810E94804F682FF80192
:1021B000808191810E94884FC8011F910F910895DD
:1021C0002F923F924F925F926F927F928F929F9247
:1021D000AF92BF92CF92DF92EF92FF920F931F9335
:1021E000DF93CF93CDB7DEB762970FB6F894DEBF1B
:1021F0000FBECDBF7C014D875E876F874A8B598BA1
:10220000688B0CE010E043E0242E312C2C0E3D1E98
:102210002E010894411C511C35E0632E712C6C0E6C
:102220007D1E27E0822E912C8C0E9D1E99E0A92EFA
:10223000B12CAC0EBD1E8BE0C82ED12CCC0EDD1EF9
:1022400024C01A830983035010401C830B83C201EE
:10225000B1010E94CE100C5F1F4F1E830D830350EF
:10226000104018870F83C301B4010E94CE100C5F89
:102270001F4F1A870987035010401C870B87025095
:102280001040C501B6010E94CE100E151F05CCF6F8
:10229000C7016A890E94884FC701019669890E9417
:1022A000884FC701029668890E94884F62960FB6D0
:1022B000F894DEBF0FBECDBFCF91DF911F910F917C
:1022C000FF90EF90DF90CF90BF90AF909F908F9056
:1022D0007F906F905F904F903F902F9008958F92D6
:1022E0009F92AF92BF92CF92DF92EF92FF920F93A5
:1022F0001F93DF93CF93CDB7DEB76D970FB6F894EA
:10230000DEBF0FBECDBF8EEE92E040E050E060E059
:1023100070E00E9403268EEE92E06FEF7FEF0E9446
:10232000FF25DE011A96EDE2F2E08AE001900D92BF
:102330008150E1F78EEE92E0BE01665F7F4F4AE08A
:1023400050E020ED30E000E010E00E94CC2C8EEE5A
:1023500092E04FE150E060E070E00E94032641E42B
:10236000B42E35E0C32ED12C2AE0A22E94E1892E82
:10237000912C8C0E9D1EF4018A2D11928A95E9F7FD
:10238000BC8A8EEE92E06FE170E00E94FF258EE144
:10239000E82EF12CEC0CFD1C8EEE92E0B60144E12F
:1023A00050E0970102E310E00E9429278EEE92E0B0
:1023B0006FEF7FEF0E94FF258EEE92E0B60144E1C1
:1023C00050E097010E944828E7E0F0E0CE0EDF1EC3
:1023D0008EEE92E0B401A6012CE130E000E010E0C6
:1023E0000E94CC2CB3948CE190E0C80ED91E9AE4E4
:1023F000B91609F60AE4B02E15E0C12ED12CBAE0C8
:10240000AB2EA4E18A2E912C8C0E9D1EF4018A2DF8
:1024100011928A95E9F7BC8A8EEE92E06FE170E046
:102420000E94FF25FEE1EF2EF12CEC0CFD1C8EEE40
:1024300092E0B6014BE450E0970109E610E00E94FB
:1024400029278EEE92E06FEF7FEF0E94FF258EEE40
:1024500092E0B6014BE450E097010E944828E7E083
:10246000F0E0CE0EDF1E8EEE92E0B401A60123E571
:1024700030E000E010E00E94CC2CB3948CE190E0BE
:10248000C80ED91E93E5B91609F6E3E5BE2E76E12E
:10249000C72ED12C69E0A62E4E010894811C911CF8
:1024A000F4018A2D11928A95E9F7B9828EEE92E0B5
:1024B0006FE170E00E94FF255EE1E52EF12CEC0C4F
:1024C000FD1C8EEE92E0B60142E850E0970100EA72
:1024D00010E00E9429278EEE92E06FEF7FEF0E94BE
:1024E000FF258EEE92E0B60142E850E097010E948F
:1024F0004828E6E0F0E0CE0EDF1E8EEE92E0B4015A
:10250000A6012AE830E000E010E00E94CC2CB39451
:102510008DE190E0C80ED91E9BE5B91609F66D96BF
:102520000FB6F894DEBF0FBECDBFCF91DF911F91E4
:102530000F91FF90EF90DF90CF90BF90AF909F9062
:102540008F900895CF92DF92EF92FF920F931F9397
:10255000DF93CF93CDB7DEB727970FB6F894DEBFE2
:102560000FBECDBF10912A0352E0C52ED12CC6015B
:102570000E94804F811708F046C00E946F110E9490
:10258000F70DF82E8EEE92E040E050E060E070E053
:102590000E9403268EEE92E06FEF7FEF0E94FF25F0
:1025A0001A821982F9828EEE92E0BE016F5F7F4F30
:1025B00044EB50E020ED30E000E010E00E94CC2C35
:1025C00064EF71E080E090E00E9409160E94F70D30
:1025D000E82E1C821B828B838EEE92E0BE016D5F23
:1025E0007F4F44EC50E020ED30E00E94CC2C609115
:1025F0002A036F83EE82FD82C60102974F2D5E2D66
:102600000E94E01009C083E090E0C80ED91E91E15D
:10261000C916D10409F0ABCF27960FB6F894DEBFE8
:102620000FBECDBFCF91DF911F910F91FF90EF9023
:10263000DF90CF900895EF92FF920F931F930E9427
:10264000621686E595E040E855E260E070E00E94A1
:10265000B6196EEEE62E62E0F62EC70161E00E942A
:10266000812EC7010E94AE240FE113E0C80161E092
:102670000E94184DC80161E00E94364CC7016AE112
:1026800077E00E94F42A1F910F91FF90EF90089538
:102690002F923F924F925F926F927F928F929F9272
:1026A000AF92BF92CF92DF92EF92FF920F931F9360
:1026B000DF93CF93CDB7DEB727970FB6F894DEBF81
:1026C0000FBECDBF0E941B1380912B0390912C0352
:1026D000892B09F064C00E945E0F61C08EE390E018
:1026E00062E071E042E350E02AE530E00E94C00D74
:1026F000882329F18EEE92E060E070E00E94FF25D1
:102700008EEE92E06EE370E042E350E022E031E0D2
:102710000AE510E00E9429278EEE92E06EE370E059
:1027200046E850E022E031E00EEA10E00E9429275E
:1027300081E090E090932C0380932B0330C08EE3D4
:1027400090E062E071E046E850E02EEA30E00E945E
:10275000C00D882321F18EEE92E060E070E00E94CF
:10276000FF258EEE92E06EE370E042E350E022E05F
:1027700031E00AE510E00E9429278EEE92E06EE338
:1027800070E046E850E022E031E00EEA10E00E94FE
:102790002927E2E0F0E0F0932C03E0932B038FE194
:1027A00093E00E944C4C882309F098CF80912B0332
:1027B00090912C03019709F06AC16624772455246F
:1027C000539458C10E9409100E94D70E64E071E032
:1027D0000E94F94F4C017EE1E72EF12CE80EF91E24
:1027E0000E94D70E64EA70E00E94F94F8E839F83A7
:1027F0000E811F81025E1F4F8EEE92E06FEF7FEF22
:102800000E94FF252E2CF982402E312E8EEE92E072
:10281000B701A8012EE130E00E94B5260E94FB1509
:102820005B016C0110E0C401CC969B838A83EE812E
:10283000FF81FC96FD83EC83B4C08FE193E00E949E
:102840004C4C882309F4ADC0C4016A817B814E8160
:102850005F812C813D810E94C00D882309F45EC0F8
:102860008EEE92E060EE77E00E94FF258EEE92E021
:10287000622D7981442D532D2EE130E00E94B52642
:1028800080912A03850D80932A030E940910E0900D
:102890003802F090390200913A0210913B020E94F6
:1028A000FB15EA0CFB1C0C1D1D1DE61AF70A080B94
:1028B000190B86E595E0B801A7012AE030E00E94F7
:1028C000D01CE0903802F090390200913A02109149
:1028D0003B02EA0CFB1C0C1D1D1D0E94FB156E1516
:1028E0007F0580079107B0F4E0903802F09039023C
:1028F00000913A0210913B020E94FB15EA0CFB1C6E
:102900000C1D1D1DE61AF70A080B190BC801B701AB
:102910000E9409160894611C711C42C08EEE92E060
:1029200060E078EF0E94FF258EEE92E0622D7981C3
:10293000442D532D2EE130E00E94B52680913702C0
:10294000815080933702E0903802F0903902009174
:102950003A0210913B02EA0CFB1C0C1D1D1D0E944B
:10296000FB156E157F0580079107B0F4E0903802E3
:10297000F090390200913A0210913B020E94FB153F
:10298000EA0CFB1C0C1D1D1DE61AF70A080B190B9F
:10299000C801B7010E940916662477245524539470
:1029A00011E00E94FB1520913802309139024091CC
:1029B0003A0250913B022A0D3B1D4C1D5D1D6217D2
:1029C00073078407950708F438CF1123C9F48EEEF6
:1029D00092E060E078EF0E94FF258EEE92E0622D9B
:1029E0007981442D532D2EE130E00E94B52680914F
:1029F00037028150809337026624772455245394FC
:102A00000E940910609138027091390280913A0257
:102A100090913B020E94504E2FE135E84BE65FE378
:102A20000E94174F0E94244E60933802709339021F
:102A300080933A0290933B02F5E06F1671041CF00C
:102A400053946624772468EC70E080E090E00E9464
:102A500009168EEE92E060E040E020E00E94E7255B
:102A60008EEE92E0622D7981442D532D2EE130E0DF
:102A70000E94B52680913702882309F0A3CE0E94D8
:102A8000A21283E090E090932C0380932B0380911B
:102A90002B0390912C030297C1F40E9446108FE102
:102AA00093E00E944C4C882381F08EEE92E060E02F
:102AB00070E00E94432510922C0310922B0364EFC8
:102AC00071E080E090E00E94091680912B039091C4
:102AD0002C03039709F0F8CD8EEE92E060E070E0F1
:102AE0000E94432564EF71E080E090E00E940916A7
:102AF0000E94FA0E10922C0310922B03E5CD382F72
:102B0000863308F0365320917B00832F8695869577
:102B1000869590E08170907043E0880F991F4A95E8
:102B2000E1F7277F282B20937B00377080913C02B0
:102B30008295880F880F807C832B80937C00809106
:102B40007A00806480937A0080917A0086FDFCCFC1
:102B50002091780040917900942F80E030E0282B7C
:102B6000392BC90108951F920F920FB60F921124AD
:102B70002F933F938F939F93AF93BF938091310394
:102B800090913203A0913303B09134033091350317
:102B90000196A11DB11D232F2D5F2D3720F02D573C
:102BA0000196A11DB11D20933503809331039093AD
:102BB0003203A0933303B093340380912D0390919B
:102BC0002E03A0912F03B09130030196A11DB11DDA
:102BD00080932D0390932E03A0932F03B093300383
:102BE000BF91AF919F918F913F912F910F900FBE09
:102BF0000F901F9018958FB7F89420913103309162
:102C0000320340913303509134038FBFB901CA019D
:102C100008959B01AC017FB7F89480912D039091AA
:102C20002E03A0912F03B091300366B5A89B05C079
:102C30006F3F19F00196A11DB11D7FBFBA2FA92FBB
:102C4000982F8827860F911DA11DB11D62E0880F66
:102C5000991FAA1FBB1F6A95D1F7BC012DC0FFB7F2
:102C6000F89480912D0390912E03A0912F03B091A1
:102C70003003E6B5A89B05C0EF3F19F00196A11DF2
:102C8000B11DFFBFBA2FA92F982F88278E0F911D36
:102C9000A11DB11DE2E0880F991FAA1FBB1FEA9575
:102CA000D1F7861B970B885E9340C8F221503040C5
:102CB0004040504068517C4F211531054105510578
:102CC00071F60895789484B5826084BD84B581607E
:102CD00084BD85B5826085BD85B5816085BDEEE624
:102CE000F0E0808181608083E1E8F0E01082808103
:102CF00082608083808181608083E0E8F0E0808171
:102D000081608083E1EBF0E0808184608083E0EB90
:102D1000F0E0808181608083E1E9F0E08081826081
:102D20008083808181608083E0E9F0E08081816040
:102D30008083E1EAF0E0808182608083808181602D
:102D40008083E0EAF0E0808181608083E1E2F1E06D
:102D5000808182608083808181608083E0E2F1E015
:102D6000808181608083EAE7F0E0808184608083F5
:102D7000808182608083808181608083808180689F
:102D800080831092C1000895CF93DF93482F50E0C5
:102D9000CA018A5E9D4FFC01349140535E4FFA0197
:102DA0008491882369F190E0880F991FFC01EE5708
:102DB000FE4FA591B491FC01E456FE4FC591D4910C
:102DC000662351F42FB7F8948C91932F9095892313
:102DD0008C93888189230BC0623061F42FB7F894FB
:102DE0008C91932F909589238C938881832B888352
:102DF0002FBF06C09FB7F8948C91832B8C939FBFF5
:102E0000DF91CF910895893009F449C08A30A0F448
:102E1000843051F1853040F4823079F1833000F50F
:102E2000813009F063C026C0873079F1883098F589
:102E3000863009F05BC025C08D3009F442C08E3069
:102E400028F48B30B1F18C30C0F52DC0803109F4FD
:102E500042C0813109F445C08F3009F047C037C006
:102E6000809180008F7703C0809180008F7D809358
:102E70008000089584B58F7702C084B58F7D84BDAE
:102E800008958091B0008F7703C08091B0008F7D4E
:102E90008093B0000895809190008F7707C0809153
:102EA00090008F7D03C080919000877F8093900079
:102EB00008958091A0008F7707C08091A0008F7D3A
:102EC00003C08091A000877F8093A0000895809127
:102ED00020018F7703C0809120018F7D8093200196
:102EE000089580912001877F809320010895FF92AB
:102EF0000F931F93F62E482F50E0CA01845A9D4F1E
:102F0000FC012491CA018A5E9D4FFC01149140533B
:102F10005E4FFA0104910023C9F0222319F0822F99
:102F20000E940317E02FF0E0EE0FFF1FE456FE4F64
:102F3000A591B4919FB7F894FF2021F48C9110953E
:102F4000812302C08C91812B8C939FBF1F910F9185
:102F5000FF9008950F931F93482F50E0CA01845AA1
:102F60009D4FFC012491CA018A5E9D4FFC01049192
:102F700040535E4FFA011491112319F420E030E020
:102F800015C0222319F0822F0E940317812F90E091
:102F9000880F991F8A549E4FFC01A591B4918C9182
:102FA00020E030E0802311F021E030E0C9011F91E2
:102FB0000F9108951F920F920FB60F920BB60F92BA
:102FC00011242F933F934F938F939F93EF93FF93EE
:102FD0004091C60020917603309177032F5F3F4FD9
:102FE0002F733070809178039091790328173907F7
:102FF00059F0E0917603F0917703EA5CFC4F40834F
:103000003093770320937603FF91EF919F918F91F7
:103010004F913F912F910F900BBE0F900FBE0F90CD
:103020001F9018951F920F920FB60F920BB60F922A
:1030300011242F933F934F938F939F93EF93FF937D
:103040004091CE002091FE033091FF032F5F3F4F50
:103050002F73307080910004909101042817390774
:1030600059F0E091FE03F091FF03E254FC4F4083DE
:103070003093FF032093FE03FF91EF919F918F9177
:103080004F913F912F910F900BBE0F900FBE0F905D
:103090001F9018951F920F920FB60F920BB60F92BA
:1030A00011242F933F934F938F939F93EF93FF930D
:1030B0004091D60020918604309187042F5F3F4FC6
:1030C0002F733070809188049091890428173907F4
:1030D00059F0E0918604F0918704EA5BFB4F40834E
:1030E0003093870420938604FF91EF919F918F91F5
:1030F0004F913F912F910F900BBE0F900FBE0F90ED
:103100001F9018951F920F920FB60F920BB60F9249
:1031100011242F933F934F938F939F93EF93FF939C
:103120004091360120910E0530910F052F5F3F4FE2
:103130002F73307080911005909111052817390771
:1031400059F0E0910E05F0910F05E253FB4F4083DB
:1031500030930F0520930E05FF91EF919F918F9172
:103160004F913F912F910F900BBE0F900FBE0F907C
:103170001F9018951F920F920FB60F920BB60F92D9
:1031800011242F933F938F939F93EF93FF9320915D
:10319000BA033091BB038091BC039091BD03281703
:1031A000390731F48091C1008F7D8093C10014C034
:1031B000E091BC03F091BD03E658FC4F2081809163
:1031C000BC039091BD0301968F7390709093BD03E3
:1031D0008093BC032093C600FF91EF919F918F9144
:1031E0003F912F910F900BBE0F900FBE0F901F902D
:1031F00018951F920F920FB60F920BB60F921124D3
:103200002F933F938F939F93EF93FF9320914204CB
:103210003091430480914404909145042817390764
:1032200031F48091C9008F7D8093C90014C0E09172
:103230004404F0914504EE5FFB4F208180914404EB
:103240009091450401968F739070909345048093FC
:1032500044042093CE00FF91EF919F918F913F9175
:103260002F910F900BBE0F900FBE0F901F901895CF
:103270001F920F920FB60F920BB60F9211242F933D
:103280003F938F939F93EF93FF932091CA043091C4
:10329000CB048091CC049091CD042817390731F4E8
:1032A0008091D1008F7D8093D10014C0E091CC0437
:1032B000F091CD04E657FB4F20818091CC04909192
:1032C000CD0401968F7390709093CD048093CC04BD
:1032D0002093D600FF91EF919F918F913F912F9175
:1032E0000F900BBE0F900FBE0F901F9018951F925E
:1032F0000F920FB60F920BB60F9211242F933F939C
:103300008F939F93EF93FF93209152053091530534
:1033100080915405909155052817390731F4809113
:1033200031018F7D8093310114C0E0915405F091FB
:103330005505EE5EFA4F2081809154059091550518
:1033400001968F7390709093550580935405209348
:103350003601FF91EF919F918F913F912F910F90A7
:103360000BBE0F900FBE0F901F901895AF92BF929B
:10337000DF92EF92FF920F931F93CF93DF93EC01B5
:103380007A018B01DD24403081EE580780E0680728
:1033900080E0780711F0DD24D39491E0A92EB12CC0
:1033A000EC89FD89DD2069F0C5010E8C02C0880F13
:1033B000991F0A94E2F7808360E079E08DE390E062
:1033C00005C0108260E874E88EE190E0A8019701E2
:1033D0000E940D5021503040404050405695479536
:1033E0003795279580E12030380720F0DD2011F057
:1033F000DD24D6CFE889F9893083EA89FB892083E7
:10340000EE89FF89408121E030E0C9010A8C02C0C9
:10341000880F991F0A94E2F7482B4083EE89FF89B1
:103420004081C9010B8C02C0880F991F0A94E2F7F2
:10343000482B4083EE89FF894081C9010C8C02C072
:10344000880F991F0A94E2F7482B4083EE89FF8981
:1034500080810D8C02C0220F331F0A94E2F7209561
:1034600028232083DF91CF911F910F91FF90EF9040
:10347000DF90BF90AF900895DC011C96ED91FC9118
:103480001D97E05CFF4F2191319180819181281B34
:10349000390B2F733070C9010895DC011C96ED9132
:1034A000FC911D97E05CFF4F20813181E054F0409A
:1034B000DF01AE5BBF4F8D919C91119728173907A3
:1034C00019F42FEF3FEF07C08D919C91E80FF91F82
:1034D0008081282F30E0C9010895DC011C96ED9110
:1034E000FC911D97E05CFF4F20813181E054F0405A
:1034F000DF01AE5BBF4F8D919C9111972817390763
:1035000019F42FEF3FEF10C08D919C911197E80FA8
:10351000F91F20818D919C91119701968F73907066
:1035200011969C938E9330E0C9010895FC01868525
:103530009785DC01A05CBF4FFC01EE5BFF4F2D9136
:103540003C9111978081918128173907C1F708951F
:10355000CF93DF93EC01EE85FF85E05CFF4F208188
:103560003181E054F0402F5F3F4F2F733070DF0107
:10357000AE5BBF4F8D919C91119728173907D1F3FE
:10358000E05CFF4F80819181E054F040E80FF91F2B
:103590006083EE85FF85E05CFF4F31832083EE89F9
:1035A000FF89208181E090E00D8C02C0880F991F77
:1035B0000A94E2F7282B208381E090E0DF91CF91FD
:1035C00008951F93109259051092580528EE33E084
:1035D00040E050E020935A0530935B0540935C0532
:1035E00050935D0561E472E0709357056093560552
:1035F00086E393E090936305809362058AE793E006
:10360000909365058093640585EC90E09093670541
:103610008093660584EC90E090936905809368053B
:1036200080EC90E090936B0580936A0581EC90E0CC
:1036300090936D0580936C0586EC90E090936F05F8
:1036400080936E0514E010937005B3E0B09371059C
:10365000A7E0A0937205F5E0F0937305E1E0E09335
:1036600074051092780510927705209379053093B0
:103670007A0540937B0550937C05709376056093A3
:1036800075058EEB93E0909382058093810582E02F
:1036900094E090938405809383058DEC90E0909363
:1036A0008605809385058CEC90E090938805809347
:1036B000870588EC90E090938A058093890589ECD2
:1036C00090E090938C0580938B058EEC90E0909326
:1036D0008E0580938D0510938F05B0939005A09370
:1036E0009105F0939205E09393051092970510923F
:1036F0009605209398053093990540939A05509329
:103700009B05709395056093940586E494E09093EF
:10371000A1058093A0058AE894E09093A305809387
:10372000A20585ED90E09093A5058093A40584ED16
:1037300090E09093A7058093A60580ED90E090938C
:10374000A9058093A80581ED90E09093AB05809347
:10375000AA0586ED90E09093AD058093AC0510939B
:10376000AE05B093AF05A093B005F093B105E0931B
:10377000B2051092B6051092B5052093B7053093A7
:10378000B8054093B9055093BA057093B40560939A
:10379000B3058EEC94E09093C0058093BF0582E161
:1037A00095E09093C2058093C10585E391E09093E5
:1037B000C4058093C30584E391E09093C60580938C
:1037C000C50580E391E09093C8058093C70581E328
:1037D00091E09093CA058093C90586E391E09093A8
:1037E000CC058093CB051093CD05B093CE05A09367
:1037F000CF05F093D005E093D1051F910895CF92A6
:10380000DF92EF92FF920F931F93CF93DF937C0190
:103810006B018A01C0E0D0E00FC0D6016D916D014F
:10382000D701ED91FC910190F081E02DC701199530
:10383000C80FD91F015010400115110571F7CE01B5
:10384000DF91CF911F910F91FF90EF90DF90CF907C
:103850000895EF92FF920F931F938C01DC01ED917D
:10386000FC910190F081E02D6DE019957C01D8016B
:10387000ED91FC910190F081E02DC8016AE019956D
:103880009C012E0D3F1DC9011F910F91FF90EF90DC
:103890000895CF93DF93DB010D900020E9F7119796
:1038A000A61BB70BEC01E881F9810280F381E02DC2
:1038B000AD011995DF91CF9108954F925F927F925C
:1038C0008F929F92AF92BF92CF92DF92EF92FF9230
:1038D0000F931F93DF93CF93CDB7DEB7A1970FB6AA
:1038E000F894DEBF0FBECDBF2C01742ECB01223069
:1038F00008F42AE019A231E2C32ED12CCC0EDD1E31
:10390000822E9924AA24BB24672D752FA50194012A
:103910000E940D5079018A01C801B701A5019401E7
:103920000E94DA4F472D461B0894C108D1084A303F
:1039300014F4405D01C0495CF6014083E114F104D8
:103940000105110521F07E2C5F2DC801DDCFC201DC
:10395000B6010E94491CA1960FB6F894DEBF0FBEB7
:10396000CDBFCF91DF911F910F91FF90EF90DF902E
:10397000CF90BF90AF909F908F907F905F904F902F
:103980000895DC012115310541F4ED91FC91019080
:10399000F081E02D642F199508950E945D1C089513
:1039A000EF92FF920F931F937C010E94C11C8C0128
:1039B000C7010E94291C9C01200F311FC9011F91C2
:1039C0000F91FF90EF900895DC01542F283009F4F7
:1039D0007AC1293020F4213009F051C207C02031CA
:1039E00009F489C1213109F04AC29CC11F968C910A
:1039F0001F97843029F55896ED91FC91599792962E
:103A00009C919297613021F48081892B808304C03E
:103A100080819095982390835A96ED91FC915B97C5
:103A2000908193968C9193978095892380835A9661
:103A3000ED91FC915B97808193969C9193970AC03E
:103A40005096ED91FC9151975E969C915E976130F6
:103A500021F48081892B808304C0808190959823F4
:103A600090835896ED91FC91599792969C919297DC
:103A700057FF04C08081892B808304C0808190958A
:103A8000982390835A96ED91FC915B979081939641
:103A90008C9193978095892380835A96ED91FC9120
:103AA0005B97808193969C919397892B8083252F98
:103AB000332727FD30955896ED91FC9159979296B2
:103AC0009C91929726FF04C08081892B808304C03B
:103AD00080819095982390835A96ED91FC915B9705
:103AE000908193968C9193978095892380835A96A1
:103AF000ED91FC915B97808193969C919397892B94
:103B000080835896ED91FC91599792969C9192974B
:103B100025FF04C08081892B808304C0808190951B
:103B2000982390835A96ED91FC915B9790819396A0
:103B30008C9193978095892380835A96ED91FC917F
:103B40005B97808193969C919397892B808358965D
:103B5000ED91FC91599792969C91929724FF04C005
:103B60008081892B808304C08081909598239083E5
:103B70005A96ED91FC915B97908193968C919397D7
:103B80008095892380835A96ED91FC915B97808183
:103B900093969C919397892B80835896ED91FC91F5
:103BA000599792969C91929723FF04C08081892B0C
:103BB000808304C080819095982390835A96ED91DC
:103BC000FC915B97908193968C9193978095892334
:103BD00080835A96ED91FC915B97808193969C919E
:103BE0009397892B80835896ED91FC9159979296E3
:103BF0009C91929722FF04C08081892B808304C00E
:103C000080819095982390835A96ED91FC915B97D3
:103C1000908193968C9193978095892380835A966F
:103C2000ED91FC915B97808193969C919397892B62
:103C300080835896ED91FC91599792969C9192971A
:103C400021FF04C08081892B808304C080819095EE
:103C5000982390835A96ED91FC915B97908193966F
:103C60008C9193978095892380835A96ED91FC914E
:103C70005B97808193969C919397892B808358962C
:103C8000ED91FC91599792969C91929720FF04C0D8
:103C90008081892B808304C08081909598239083B4
:103CA0005A96ED91FC915B97908193968C919397A6
:103CB0008095892380835A96ED91FC915B97808152
:103CC00093969C912CC062B95296ED91FC915397BA
:103CD00090815F968C915F9780958923808352961F
:103CE000ED91FC91539780815F969C915F97892B12
:103CF000808342B902C062B948B95296ED91FC91F5
:103D0000539790815F968C915F97809589238083EC
:103D10005296ED91FC91539780815F969C91892BEF
:103D200080830895A59844B3262F332727FD309527
:103D3000C90180719070880F991F482B44BB8091F6
:103D40000201877E8093020140910201C901807CBB
:103D50009070F3E095958795FA95E1F7482B40939D
:103D600002018EB1847C8EB99EB1862F8C70880F33
:103D7000880F6370860F20723070359527953595C2
:103D80002795820F892B8EB95C96ED91FC915D97FA
:103D9000908194968C9194978095892380835C96EA
:103DA000ED91FC915D97808194969C919497892BDD
:103DB00080835C96ED91FC915D97908194968C91B7
:103DC00094978095892380835496ED91FC91559723
:103DD000908190968C919097809589238083A59867
:103DE00044B3252F332727FD3095C901807190708A
:103DF000880F991F482B44BB80910201877E8093D6
:103E0000020140910201C901807C907063E09595A8
:103E100087956A95E1F7482B409302018EB1847C27
:103E20008EB99EB1852F8C70880F880F5370850FC7
:103E3000207230703595279535952795820F892BFF
:103E40008EB95296ED91FC91539790815F968C912B
:103E50005F978095892380835296ED91FC915397CB
:103E600080815F969C915F97892B80835496ED911A
:103E7000FC915597808190969C91892B8083089521
:103E8000AF92BF92CF92DF92EF92FF920F931F9368
:103E9000CF93DF93EC015801690162B948B9C901B8
:103EA000B80120E130E040E050E00E942F5079015D
:103EB0008A0120E030E040E050E0D4C0EA89FB898C
:103EC00090818F8D809589238083EA89FB89808109
:103ED0009F8D892B8083EA89FB8990818F8D8095C6
:103EE00089238083EA89FB8980819F8D892B808348
:103EF000EA89FB8990818F8D809589238083EA8967
:103F0000FB8980819F8D892B8083EA89FB89908141
:103F10008F8D809589238083EA89FB8980819F8D9D
:103F2000892B8083EA89FB8990818F8D80958923F5
:103F30008083EA89FB8980819F8D892B8083EA8930
:103F4000FB8990818F8D809589238083EA89FB8905
:103F500080819F8D892B8083EA89FB8990818F8D59
:103F6000809589238083EA89FB8980819F8D892BB5
:103F70008083EA89FB8990818F8D80958923808356
:103F8000EA89FB8980819F8D892B8083EA89FB895F
:103F900090818F8D809589238083EA89FB89808138
:103FA0009F8D892B8083EA89FB8990818F8D8095F5
:103FB00089238083EA89FB8980819F8D892B808377
:103FC000EA89FB8990818F8D809589238083EA8996
:103FD000FB8980819F8D892B8083EA89FB89908171
:103FE0008F8D809589238083EA89FB8980819F8DCD
:103FF000892B8083EA89FB8990818F8D8095892325
:104000008083EA89FB8980819F8D892B8083EA895F
:10401000FB8990818F8D809589238083EA89FB8934
:1040200080819F8D892B8083EA89FB8990818F8D88
:10403000809589238083EA89FB8980819F8D892BE4
:104040008083EA89FB8990818F8D80958923808385
:10405000EA89FB8980819F8D892B80832F5F3F4F69
:104060004F4F5F4F2E153F05400751070CF426CFE9
:10407000D601C5018F709070A070B0700097A10537
:10408000B10529F1C601B50120E130E040E050E082
:104090000E942F509B01AC01EE24FF24870112C027
:1040A000EA89FB8990818F8D809589238083EA89B5
:1040B000FB8980819F8D892B80830894E11CF11CF2
:1040C000011D111D2E153F05400751074CF7DF91CB
:1040D000CF911F910F91FF90EF90DF90CF90BF9005
:1040E000AF900895AF92BF92CF92DF92EF92FF927E
:1040F0000F931F93CF93DF93EC0159016A0162B9CB
:10410000CA01B90120E130E040E050E00E942F50A8
:1041100079018A0120E030E040E050E0A4C1EA8962
:10412000FB8990818F8D809589238083EA89FB8923
:1041300080819F8D892B8083EA89FB8990818F8D77
:10414000809589238083EA89FB8980819F8D892BD3
:104150008083EA89FB8990818F8D80958923808374
:10416000EA89FB8980819F8D892B8083EA89FB897D
:1041700090818F8D809589238083EA89FB89808156
:104180009F8D892B8083EA89FB8990818F8D809513
:1041900089238083EA89FB8980819F8D892B808395
:1041A000EA89FB8990818F8D809589238083EA89B4
:1041B000FB8980819F8D892B8083EA89FB8990818F
:1041C0008F8D809589238083EA89FB8980819F8DEB
:1041D000892B8083EA89FB8990818F8D8095892343
:1041E0008083EA89FB8980819F8D892B8083EA897E
:1041F000FB8990818F8D809589238083EA89FB8953
:1042000080819F8D892B8083EA89FB8990818F8DA6
:10421000809589238083EA89FB8980819F8D892B02
:104220008083EA89FB8990818F8D809589238083A3
:10423000EA89FB8980819F8D892B8083EA89FB89AC
:1042400090818F8D809589238083EA89FB89808185
:104250009F8D892B8083EA89FB8990818F8D809542
:1042600089238083EA89FB8980819F8D892B8083C4
:10427000EA89FB8990818F8D809589238083EA89E3
:10428000FB8980819F8D892B8083EA89FB899081BE
:104290008F8D809589238083EA89FB8980819F8D1A
:1042A000892B8083EA89FB8990818F8D8095892372
:1042B0008083EA89FB8980819F8D892B8083EA89AD
:1042C000FB8990818F8D809589238083EA89FB8982
:1042D00080819F8D892B8083EA89FB8990818F8DD6
:1042E000809589238083EA89FB8980819F8D892B32
:1042F0008083EA89FB8990818F8D809589238083D3
:10430000EA89FB8980819F8D892B8083EA89FB89DB
:1043100090818F8D809589238083EA89FB898081B4
:104320009F8D892B8083EA89FB8990818F8D809571
:1043300089238083EA89FB8980819F8D892B8083F3
:10434000EA89FB8990818F8D809589238083EA8912
:10435000FB8980819F8D892B8083EA89FB899081ED
:104360008F8D809589238083EA89FB8980819F8D49
:10437000892B8083EA89FB8990818F8D80958923A1
:104380008083EA89FB8980819F8D892B8083EA89DC
:10439000FB8990818F8D809589238083EA89FB89B1
:1043A00080819F8D892B8083EA89FB8990818F8D05
:1043B000809589238083EA89FB8980819F8D892B61
:1043C0008083EA89FB8990818F8D80958923808302
:1043D000EA89FB8980819F8D892B8083EA89FB890B
:1043E00090818F8D809589238083EA89FB898081E4
:1043F0009F8D892B8083EA89FB8990818F8D8095A1
:1044000089238083EA89FB8980819F8D892B808322
:10441000EA89FB8990818F8D809589238083EA8941
:10442000FB8980819F8D892B8083EA89FB8990811C
:104430008F8D809589238083EA89FB8980819F8D78
:10444000892B8083EA89FB8990818F8D80958923D0
:104450008083EA89FB8980819F8D892B80832F5FF0
:104460003F4F4F4F5F4F2E153F05400751070CF44C
:1044700056CED601C5018F709070A070B0700097B5
:10448000A105B10591F1C601B50120E130E040E0A0
:1044900050E00E942F509B01AC01EE24FF248701C5
:1044A0001FC0EA89FB8990818F8D80958923808345
:1044B000EA89FB8980819F8D892B8083EA89FB892A
:1044C00090818F8D809589238083EA89FB89808103
:1044D0009F8D892B80830894E11CF11C011D111D07
:1044E0002E153F0540075107E4F6DF91CF911F914C
:1044F0000F91FF90EF90DF90CF90BF90AF90089515
:10450000DC01462F1E968C911E97813081F05096CB
:10451000ED91FC91519790815E968C915E9780957C
:1045200089238083CD0160E01E962C9103C0CD01CC
:1045300060E021E00E94E41C08951F93CF93DF9375
:10454000EC01262F142F8E85813041F0E889F989FE
:1045500080819E8D892B8083CE0108C0CE0161E0D1
:10456000422F21E00E94E41CCE0161E0412F2E8504
:104570000E94E41CDF91CF911F910895DC01462F2A
:104580001E968C911E97813079F05096ED91FC919A
:10459000519780815E969C915E97892B8083CD0197
:1045A00060E01E962C9103C0CD0161E021E00E94E5
:1045B000E41C0895EF92FF920F931F938C017A01F0
:1045C0000E9480226F2D772767FD7A95C8014E2DB6
:1045D0000E949D221F910F91FF90EF900895AF923E
:1045E000BF92CF92DF92EF92FF920F931F93CF93E0
:1045F000DF93EC017B015A0169018C81813059F410
:1046000029853A85A901461B570B2C193D096801DC
:104610008A01750159018D85E82FF0E0E032F1053E
:1046200008F074C1EE58FF4FEE0FFF1F0590F49194
:10463000E02D1994CE0162E04F2D50E00E94DA2265
:10464000CE0163E0A7010E94DA22CE0164E04D2D85
:1046500050E00E94DA22CE0165E0A6010E94DA2233
:10466000CE0166E04B2D50E00E94DA22CE0167E0D9
:10467000A5010E94DA22CE0168E0412F50E08CC0F3
:10468000CE016AE20E948022CE0160E04F2D0E949E
:104690009D22CE0160E04E2D0E949D22CE0160E061
:1046A0004D2D0E949D22CE0160E04C2D0E949D2246
:1046B000CE016BE20E948022CE0160E04B2D0E9471
:1046C0009D22CE0160E04A2D0E949D22CE0160E035
:1046D000412F0E949D22CE0160E0402F0E949D222A
:1046E00011C15C2D44274E0D5F1DCE0164E40E9474
:1046F000DA22CE0165E4A5010E94DA22CE0166E449
:10470000A8010E94DA22CE016EE4A7010E94DA22FB
:10471000CE016FE4B2C0CE0160E2A7010E94DA22AE
:10472000CE0161E2A5010E94DA22CE0160E5A70177
:104730000E94DA22CE0162E5A5010E94DA22CE01B2
:1047400061E5A6010E94DA22CE0163E529C0CE010F
:1047500062E040E050E00E94DA22CE0163E0A7016F
:104760000E94DA22CE0164E040E050E00E94DA22AA
:10477000CE0165E0A6010E94DA22CE0166E040E0AB
:1047800050E00E94DA22CE0167E0A5010E94DA2201
:10479000CE0168E040E050E00E94DA22CE0169E0FC
:1047A000A8016CC0CE016AE20E948022CE016E2D6B
:1047B0000E94BE22CE016C2D0E94BE22CE016BE271
:1047C0000E948022CE016A2D97C0CE016AE20E942B
:1047D0008022CE016B2D0E94BE22CE016A2D0E9446
:1047E000BE22CE01612F0E94BE22CE01602F0E9408
:1047F000BE22CE016BE20E948022CE016F2D0E946C
:10480000BE22CE016E2D0E94BE22CE016D2D0E94D1
:10481000BE22CE016C2D74C05C2D44274E295F2929
:10482000CE0166E40E94DA22CE0167E4A8010E946C
:10483000DA22CE0168E4A5010E94DA22CE0160E20C
:10484000A70117C0CE0166E3A6010E94DA22CE01BD
:1048500067E3A7010E94DA22CE0168E3A8010E9463
:10486000DA22CE0169E3A5010E94DA22CE0160E2DC
:10487000A7010E94DA22CE0161E2A5010E94DA229C
:10488000CE0162E241C0CE0162E0A5010E94DA22BF
:10489000CE0163E0A7010E94DA22CE0166E0A80102
:1048A0000E94DA22CE0167E0A6010E94DA22CE0140
:1048B0006FE02AC0CE016AE20E948022CE016F2DF5
:1048C0000E94BE22CE016E2D0E94BE22CE016D2D11
:1048D0000E94BE22CE016C2D0E94BE22CE016BE250
:1048E0000E948022CE016B2D0E94BE22CE016A2D35
:1048F0000E94BE22CE01612F0E94BE22CE01602FF7
:104900000E94BE22CE016CE20E948022DF91CF91F4
:104910001F910F91FF90EF90DF90CF90BF90AF90DD
:1049200008950F931F93FC018481A581B6810185B1
:104930001285882339F4CF0160E070E040E050E058
:104940009D0107C0CF0160E070E040E050E09801B9
:104950008D010E94EF221F910F910895EF92FF9217
:104960000F931F93CF93DF93EC01EC89FD89908126
:1049700088A1809589238083CE010E9491248E8511
:10498000813031F0E889F98980819E8D892B80837F
:104990008E858031E1F469857A858B859C856F5F92
:1049A0007F4F8F4F9F4F2D813E814F8158852F5FC5
:1049B0003F4F4F4F5F4F0E94DA4F8B019C01CE015A
:1049C00060E070E040E050E00E94401F4FC088303F
:1049D00021F0EE24FF24870132C069857A858B851A
:1049E0009C856F5F7F4F8F4F9F4F2D813E814F8101
:1049F00058852F5F3F4F4F4F5F4F0E94DA4F9B010B
:104A0000AC01CE0160E070E00E9472202FC02E85C4
:104A1000213021F0CE0160E040E00AC0CE0161E02B
:104A200040E021E00E94E41CCE0161E040E02E85E0
:104A30000E94E41C0894E11CF11C011D111D6985F4
:104A40007A858B859C856F5F7F4F8F4F9F4F2D8120
:104A50003E814F8158852F5F3F4F4F4F5F4F0E94E0
:104A6000DA4FE616F706080719078CF2EC89FD897C
:104A7000808198A1892B8083DF91CF911F910F9125
:104A8000FF90EF900895CF92DF92EF92FF920F93F5
:104A90001F93CF93DF93EC016B01EC89FD8990812B
:104AA00088A1809589238083CE010E9491248E85E0
:104AB000813031F0E889F98980819E8D892B80834E
:104AC0008E85803109F5ED2CFF24E7FCF094DD2480
:104AD000C7FCD09469857A858B859C856F5F7F4FF5
:104AE0008F4F9F4F2D813E814F8158852F5F3F4FC4
:104AF0004F4F5F4F0E94DA4F8B019C01CE01B701EF
:104B0000A6010E94401F54C08830C1F5DC14B1F5E5
:104B10000D2D112707FD109569857A858B859C855C
:104B20006F5F7F4F8F4F9F4F2D813E814F81588503
:104B30002F5F3F4F4F4F5F4F0E94DA4F9B01AC01F9
:104B4000CE01B8010E94722033C02E85213021F0A1
:104B5000CE016D2D4C2D0AC0CE0161E04D2D21E01E
:104B60000E94E41CCE0161E04C2D2E850E94E41CC5
:104B70000894E11CF11C011D111D03C0EE24FF244B
:104B8000870169857A858B859C856F5F7F4F8F4F05
:104B90009F4F2D813E814F8158852F5F3F4F4F4F53
:104BA0005F4F0E94DA4FE616F706080719076CF206
:104BB000EC89FD89808198A1892B8083DF91CF9139
:104BC0001F910F91FF90EF90DF90CF900895FC011F
:104BD00050E0CA01B5E095958795BA95E1F7687FF1
:104BE000682B60832695269526954C715070A3E01E
:104BF000440F551FAA95E1F7242B21830895FC014A
:104C0000708361830895FC014F3F8FEF58078FEF4A
:104C100068078FEF780719F481E080AB0895BB2710
:104C2000A72F962F852F8283438310AA0895462F9E
:104C3000672F0E949D220895EF92FF920F931F937A
:104C40007C019B018A01DC015496ED91FC91559702
:104C5000908190968C91809589238083C7010E94D2
:104C6000EF22F701708160E0818190E0682B792B61
:104C7000C7010E941726D7015496ED91FC915597D4
:104C8000808190969C91892B8083C7010E949124FA
:104C90001F910F91FF90EF900895EF92FF920F9365
:104CA0001F93CF93DF93EC018A01790137FF06C090
:104CB000F094E194F108F3946E197F09EC89FD8971
:104CC000908188A18095892380839701260F371FC3
:104CD000CE01A8010E94EF228E85803199F4E889E7
:104CE000F98980819E8D892B808368814981870124
:104CF000222717FD2095322FCE0170E050E00E9450
:104D0000401F23C08830A9F498818981981789F4BD
:104D1000E889F98980819E8D892B8083688197013C
:104D2000442737FD4095542FCE0170E00E94722039
:104D30000CC000E010E0CE01688149810E949D22F4
:104D40000F5F1F4FE016F106B4F7EC89FD898081F3
:104D500098A1892B8083CE010E949124DF91CF916D
:104D60001F910F91FF90EF9008952F923F924F92D5
:104D70005F926F927F928F929F92AF92BF92CF92EB
:104D8000DF92EF92FF920F931F93CF93DF933C013B
:104D90001B01CC24DD24C21AD30A229F2001239FA9
:104DA000500C329F500C11244601840E951E5A015E
:104DB000AC18BD08E6012EC0229FC001239F900DB4
:104DC000329F900D1124840F951F48165906B4F098
:104DD0008901020D131D220F331FEE24FF24E21A56
:104DE000F30AC301B801A40197010E944D26C30133
:104DF000B801A50197010E944D2605C02F5F3F4FC6
:104E000012161306CCF621960894811C911C089466
:104E1000A108B1081C161D064CF0CC9FA001CD9F27
:104E2000500DDC9F500D11249601EACFDF91CF91F8
:104E30001F910F91FF90EF90DF90CF90BF90AF90B8
:104E40009F908F907F906F905F904F903F902F90AA
:104E500008952F923F924F925F926F927F928F921E
:104E60009F92AF92BF92CF92DF92EF92FF920F93F9
:104E70001F93DF93CF93CDB7DEB72A970FB6F89481
:104E8000DEBF0FBECDBF4C017B016A01A901261711
:104E9000370714F4AB0179010C151D051CF4C8018A
:104EA00086016C015A01AE18BF0825E0A216B104B4
:104EB0000CF46CC0C8018C199D09853091050CF467
:104EC00065C0FC01F595E795FA83E9831A86198692
:104ED00097012E5F3F4F3C832B839CEF292E9FEF42
:104EE000392E2A0C3B1C27010894411C511C8EEFC3
:104EF000682E8FEF782E6A0C7B1CC60101969E836C
:104F00008D83F8013197F887EF8329853A8521153C
:104F1000310521F021303105D9F40DC0C4016B8178
:104F20007C81A60191010E944D26C4016B817C8188
:104F3000A80191011EC0C401B2014D815E8193019F
:104F40000E944D26C401B2014F815885930111C0C2
:104F500049855A854C0D5D1DC401B70195010E941C
:104F60004D26A80189859A85481B590BC401B701B4
:104F700095010E944D26E985FA853196FA87E987E1
:104F800029813A812E173F070CF0BFCF2A960FB622
:104F9000F894DEBF0FBECDBFCF91DF911F910F916F
:104FA000FF90EF90DF90CF90BF90AF909F908F9049
:104FB0007F906F905F904F903F902F900895EF9269
:104FC000FF920F931F93CF93DF93EC01DB017901E5
:104FD00037FF06C0F094E194F108F3944E195F098D
:104FE000EC89FD89908188A1809589238083870140
:104FF000040F151FCE01BD019D010E94EF228E8579
:10500000803199F4E889F98980819E8D892B80838C
:10501000688149818701222717FD2095322FCE0113
:1050200070E050E00E94401F23C08830A9F49881AE
:105030008981981789F4E889F98980819E8D892B67
:10504000808368819701442737FD4095542FCE0116
:1050500070E00E9472200CC000E010E0CE01688178
:1050600049810E949D220F5F1F4FE016F106B4F7A1
:10507000EC89FD89808198A1892B8083CE010E94D3
:105080009124DF91CF911F910F91FF90EF900895A0
:105090002F923F924F925F926F927F928F929F9248
:1050A000AF92BF92CF92DF92EF92FF920F931F9336
:1050B000DF93CF9300D00F92CDB7DEB73C014B0109
:1050C0005C834B83290158012617370714F42B0101
:1050D00049012B813C81A216B30624F4C501590174
:1050E0009C838B8312012818390835E0231631047C
:1050F0000CF458C0C501EB81FC818E1B9F0B9A8379
:10510000898305970CF44EC064010894C11CD11C1E
:105110008F010F5F1F4FC301B601A8010E941C261B
:1051200072010894E108F108C301B701A8010E94C7
:105130001C26850101501040C301B601A8010E9440
:105140001C26C301B701A8010E941C2684010E5F22
:105150001F4FACEFEA2EAFEFFA2EE20CF31CC301A7
:10516000B8014B815C8197010E944D26C301B801B3
:10517000A50197010E944D260B811C810E5F1F4FD8
:10518000E980FA802CEF3FEFE20EF31EC301B40179
:10519000A80197010E94DF27C301B201A80197016E
:1051A0000E94DF270F900F900F900F90CF91DF910B
:1051B0001F910F91FF90EF90DF90CF90BF90AF9035
:1051C0009F908F907F906F905F904F903F902F9027
:1051D00008952F923F924F925F926F927F928F929B
:1051E0009F92AF92BF92CF92DF92EF92FF920F9376
:1051F0001F93DF93CF93CDB7DEB72C970FB6F894FC
:10520000DEBF0FBECDBF9C878B875C834B831901AC
:10521000DC015496ED91FC915597908190968C917C
:105220009097809589238083D0968C91D0978823FE
:1052300009F020C114968C9114979C960C919C9720
:105240009D969C91E62EFF24882309F078C0202F9C
:1052500030E021503040240F351F092F10E001505D
:105260001040020D131D8B859C856B817C81A101F3
:105270000E94EF22EB85FC8584A586958695869510
:1052800025A5829FC001112426A5E21AF1088E9D52
:1052900050018F9DB00C9E9DB00C112444E050E055
:1052A000A40EB51E882499243BC0AB85BC859A9674
:1052B000ED91FC919B97EA0DFB1DE49107E010E056
:1052C0006E2E7724C301002E02C0959587950A940F
:1052D000E2F780FF0AC0EB85FC85F080EE24618157
:1052E00070E06E297F29CF010DC0AB85BC85129679
:1052F000DC901297CC2413966C91139770E06C2974
:105300007D29CD010E94172601501040BFEF0F3FAD
:105310001B07C1F60894A11CB11C0894811C911CA8
:10532000EB85FC8584A586958695869525A5829F27
:10533000C00111248816990608F4B7CF2DC106952F
:1053400006950695099F90011124AB85BC859E9614
:105350008C91E81AF1082E9D50012F9DB00C3E9DB6
:10536000B00C1124E4E0F0E0AE0EBF1E442455243E
:1053700071C0C20170E00E94F94F8B01020D131D34
:1053800030E0215030404B815C81240F351F8B85EC
:105390009C85BA01A8010E94EF22AB85BC859C9632
:1053A0008C91869586958695E82EFF240894E108D1
:1053B000F1086701CA0CDB1C3BC0AB85BC859A9623
:1053C000ED91FC919B97EC0DFD1DE49100E010E048
:1053D0004E2F50E05E834D838D819E81002E02C052
:1053E000959587950A94E2F780FF0CC0AB85BC8544
:1053F0009C90882411966C91119770E06829792906
:10540000CD0109C0EB85FC8572806624638170E064
:1054100066297729CF010E9417260F5F1F4F08309A
:105420001105D1F60894E108F1080894C108D108E3
:10543000FFEFEF16FFEFFF0609F0BFCFAB85BC858E
:105440009C968C9186958695869590E0A80EB91EBF
:10545000480E591EEB85FC8524A5622F669566953E
:10546000669585A5689FC00111244816590608F461
:1054700080CF92C0AB85BC859C962C919C9726953D
:10548000269526959D968C919D97289F9001112495
:10549000862F90E09E964C91841B9109289F500185
:1054A000299FB00C389FB00C1124E4E0F0E0AE0E60
:1054B000BF1E3101222433245EC0C6018A0D9B1D0C
:1054C000AB85BC859A96ED91FC919B97E80FF91FEF
:1054D000E491B201B7E0EB2EF12C4E2F50E058874B
:1054E0004F83CB0101969A8389838B859C85A30189
:1054F00029813A8109851A850E94EF228F8198853A
:105500000E2C02C0959587950A94E2F780FF0DC096
:10551000AB85BC859C90882411966C91119770E0A6
:1055200068297929CD010E9417260894E108F1081D
:10553000BFEFEB16BFEFFB0619F069817A81D1CF7F
:105540000894C11CD11CE8E0F0E04E0E5F1EAB8554
:10555000BC859C968C9186958695869590E0C8161C
:10556000D9060CF4AACFA80EB91E0894211C311C30
:105570000894611C711CEB85FC8585A590E02816BC
:10558000390650F44B805C80CC24DD24A3014F5FAE
:105590005F4F5A874987DBCFAB85BC855496ED9129
:1055A000FC915597808190969C91892B80838B8567
:1055B0009C850E9491242C960FB6F894DEBF0FBEF6
:1055C000CDBFCF91DF911F910F91FF90EF90DF90B2
:1055D000CF90BF90AF909F908F907F906F905F9093
:1055E0004F903F902F900895DC01FB019B967C9398
:1055F0006E939A9784919C968C939C973196849104
:105600009D968C939D97319684919E968C939E97B0
:105610003196E4919F96EC9308952F923F924F928A
:105620005F926F927F928F929F92AF92BF92CF9232
:10563000DF92EF92FF920F931F93DF93CF93CDB73B
:10564000DEB7E1970FB6F894DEBF0FBECDBF99ABC2
:1056500088ABC62E5A014901198F088FB7018827D8
:1056600077FD8095982F0E94524E29E23CE54FE845
:105670005CE30E94174F6E8F7F8F88A399A3A8A920
:10568000B9A95496ED91FC915597908190968C9183
:1056900090978095892380839C968C919C97869582
:1056A000869586959D962C919D97829FC001112489
:1056B000DD249E962C91C21AD1088C9DF0018D9DFF
:1056C000F00D9C9DF00D11243496FE83ED831F8216
:1056D0009501442737FD4095542F28A739A74AA79D
:1056E0005BA7C401AA2797FDA095BA2F8CA79DA7F9
:1056F000AEA7BFA712C18B819C81AD81BE818A0FED
:105700009B1FA8A9B9A99A96ED91FC919B97E80FC8
:10571000F91FC4902E8D3F8D48A159A1B901CA012E
:105720000E94B44D6C8B7D8B8E8B9F8B6CA17DA169
:105730008EA19FA10E94524E7B018C012E8D3F8D28
:1057400048A159A1B901CA010E947A4F688B798B8F
:105750008A8B9B8BC801B701288939894A895B8963
:105760000E94174F6C877D878E879F87C801B7017E
:105770002C893D894E895F890E94174F68877987F8
:105780008A879B8722243324EC2DF0E0FBA3EAA335
:10579000A8A9B9A99C968C9190E0E88DF98DE89F15
:1057A000B001E99F700DF89F700D112429813A8195
:1057B000620F731F620D731D882777FD8095982FE8
:1057C0000E94524E4B015C0168A579A58AA59BA554
:1057D0000E94524E7B018C01C501B4012C893D8988
:1057E0004E895F890E94174F2C853D854E855F85C8
:1057F0000E944F4D9B01AC01C801B7010E94504D62
:105800000E941F4E2B013C016B016CA57DA58EA54E
:105810009FA50E94524E7B018C01C501B4012889CD
:1058200039894A895B890E94174F9B01AC016885C1
:1058300079858A859B850E94504D9B01AC01C801EA
:10584000B7010E94504D0E941F4E9B01AC018B017D
:105850000894C11CD11C0F5F1F4F88A999A9B201E0
:10586000A90196010E94EF2287E090E08219930936
:105870004AA15BA102C0559547958A95E2F740FF82
:105880000CC0A8A9B9A9BC91BB8F1A8EE8A9F9A927
:10589000618170E02A8D3B8D11C0A8A9B9A9D0966D
:1058A0008C91D097882379F41296BC91BD8F1C8E71
:1058B000E8A9F9A9638170E02C8D3D8D622B732BD3
:1058C000CF010E9417260894211C311C38E02316B2
:1058D000310409F05DCF4B815C814F5F5F4F5C838A
:1058E0004B8389819A8108969A838983A8A9B9A94B
:1058F0009C968C9186958695869590E0EB81FC81AF
:10590000E817F9070CF4F7CE2D813E81280F391FD7
:105910003E832D833F813F5F3F83A8A9B9A99D9610
:105920008C91BF81B81780F41C821B821A82198265
:105930008B2F90E09C01442737FD4095542F2CA3DA
:105940003DA34EA35FA3D2CFA8A9B9A95496ED91C8
:10595000FC915597808190969C91892B808388A992
:1059600099A90E949124E1960FB6F894DEBF0FBE6C
:10597000CDBFCF91DF911F910F91FF90EF90DF90FE
:10598000CF90BF90AF909F908F907F906F905F90DF
:105990004F903F902F9008952F923F924F925F9299
:1059A0006F927F928F929F92AF92BF92CF92DF922F
:1059B000EF92FF920F931F93CF93DF935C01F62E2C
:1059C000E72EEA0119012801E62FF72FDF010D90DC
:1059D0000020E9F73D010894610871086E1A7F0AFA
:1059E000FC018481882321F5F7E24F305F0799F4A9
:1059F000D5011596CD91DC91169721969C968C91A8
:105A000090E0FC01E69DC001E79D900DF69D900D94
:105A10001124C81BD90BF7E2CE30DF0709F048C0CC
:105A2000D50115966D917D918D919C91189722C00D
:105A3000F7E24F305F0799F4D5011996CD91DC91CB
:105A40001A9721969C968C9190E0FC01E69DC001EE
:105A5000E79D900DF69D900D1124C81BD90BF7E220
:105A6000CE30DF0729F5D50119966D917D918D9185
:105A70009C911C976F5F7F4F8F4F9F4F9C962C91EF
:105A800030E0F901E69D9001E79D300DF69D300D67
:105A90001124442737FD4095542F621B730B840B50
:105AA000950B22E030E040E050E00E942F50E901E9
:105AB0008F2D9E2D9C014901CC24DD2426C041144C
:105AC0005104A1F4D5019C968C9190E0C89EA00150
:105AD000C99E500DD89E500D11244C0F5D1FC5015D
