:100000000C946B0D0C94970D0C94970D0C94970D0C
:100010000C94970D0C94970D0C94970D0C94970DD0
:100020000C94970D0C94970D0C94970D0C94970DC0
:100030000C94970D0C94970D0C94970D0C94970DB0
:100040000C94970D0C94970D0C94970D0C94970DA0
:100050000C94970D0C94970D0C94970D0C940F1015
:100060000C94970D0C9436120C9416130C94970D57
:100070000C94970D0C94970D0C94970D0C94970D70
:100080000C94970D0C94970D0C94970D0C94970D60
:100090000C946E120C9455130C94970D0C94970DB0
:1000A0000C94970D0C94970D0C94970D0C94970D40
:1000B0000C94970D0C94970D0C94970D0C94970D30
:1000C0000C94970D0C94970D0C94970D0C94A6120C
:1000D0000C9494130C94970D0C94DE120C94D3137F
:1000E0000C94970D581E7E1EAF1EC91EC91EC91E38
:1000F000E51E981F581E981F101F981F231F231FAF
:100100004A1F4A1FAF1EC41FC41FAF1E231F981FC4
:10011000C91E601F981F981F981F981F981F811F46
:10012000981F981F9D2738295D2A532B902C902CBF
:100130006B2ED32F7B35E030D33240330837113864
:10014000C239C2395D2ABB42BB425D2AE438C23A99
:10015000D62D8B3B5B3C623E893D1B3F6240BC41E0
:10016000D141793105A84CCDB2D44EB93836A90267
:100170000C50B9918688083CA6AAAA2ABE000000A5
:10018000803F00002100240027002A002D003000BD
:10019000330001010000040107010A0100002200F0
:1001A000250028002B002E00310034000201000041
:1001B000050108010B010000200023002600290092
:1001C0002C002F003200000100000301060109018C
:1001D00005050505070508080808020202020A0AC3
:1001E00008080404040401010101010101010303E1
:1001F000030303030303040707070C0C0C0C0C0C8C
:100200000C0C0202020206060606060606060B0B88
:100210000B0B0B0B0B0B01021020200808102040C9
:1002200010204080020102010804020101020408BA
:100230001020408080402010080402018004020148
:100240008040201008040201080402010102040891
:100250001020408001020408102040800000090A9C
:1002600002080B0C0D07060304010000000000004B
:10027000000000000000000000000000000000007E
:10028000000000000000000011100F00000000003E
:10029000000000000000000000000000000000005E
:1002A0000000080C205F00000000000000000000BB
:1002B0000000000020202020202000200000002836
:1002C0005050000000000000000000002828FC281A
:1002D00050FC50500000002078A8A0603028A8F002
:1002E0002000000048A8B050283454480000000006
:1002F00020505078A8A8906C00000040408000007A
:100300000000000000000004081010101010100879
:1003100004000040201010101010102040000000B9
:100320000020A87070A8200000000000202020F805
:10033000202020000000000000000000000000401D
:1003400040800000000000F80000000000000000F5
:100350000000000000000040000000081010102005
:10036000204040408000000070888888888888701D
:1003700000000000206020202020207000000000ED
:1003800070888810204080F80000000070880830D5
:100390000808887000000000103050509078101845
:1003A00000000000F88080F008088870000000005D
:1003B000709080F08888887000000000F89010200D
:1003C00020202020000000007088887088888870B5
:1003D00000000000708888887808487000000000DD
:1003E00000002000000000200000000000000020AD
:1003F0000000002020000004081020402010080405
:10040000000000000000F80000F8000000000040BC
:100410002010080408102040000000007088881098
:100420002020002000000000708898A8A8B88078DC
:100430000000000020203050507848CC0000000020
:10044000F0484870484848F00000000078888080F4
:100450008080887000000000F0484848484848F014
:1004600000000000F8485070504048F800000000BC
:10047000F8485070504040E000000000384880804C
:100480009C88483000000000CC484878484848CC58
:1004900000000000F8202020202020F800000000AC
:1004A0007C10101010101090E0000000EC4850601C
:1004B000505048EC00000000E0404040404044FC08
:1004C00000000000D8D8D8D8A8A8A8A8000000002C
:1004D000DC486868585848E8000000007088888840
:1004E0008888887000000000F0484870404040E074
:1004F000000000007088888888E898701800000064
:10050000F0484870504848EC00000000788880604F
:10051000100888F000000000F8A82020202020709B
:1005200000000000CC48484848484830000000001F
:10053000CC4848505030202000000000A8A8A870E7
:100540005050505000000000D8505020205050D83B
:1005500000000000D8505020202020700000000033
:10056000F8901020204048F800000038202020207B
:10057000202020203800004040402020101010088B
:1005800000000070101010101010101070000020EB
:10059000500000000000000000000000000000000B
:1005A0000000000000FC002000000000000000002F
:1005B00000000000000000304838483C0000000007
:1005C000C0404070484848700000000000000038FB
:1005D0004840403800000000180808384848483CA7
:1005E00000000000000000304878403800000000A3
:1005F0001C20207820202078000000000000003C13
:100600004830407844380000C0404070484848ECCA
:10061000000000002000006020202070000000008A
:10062000100000301010101010E00000C040405CBE
:10063000507048EC00000000E0202020202020F82E
:1006400000000000000000F0A8A8A8A8000000001A
:10065000000000F0484848EC0000000000000030B6
:100660004848483000000000000000F0484848704A
:1006700040E000000000003848484838081C0000EE
:10068000000000D8604040E000000000000000785A
:100690004030087800000000002020702020201842
:1006A00000000000000000D84848483C000000005E
:1006B000000000EC4850302000000000000000A8BE
:1006C000A870505000000000000000D8502050D802
:1006D00000000000000000EC4850302020C0000066
:1006E0000000007810202078000000181010102062
:1006F0001010101018001010101010101010101002
:10070000101000602020201020202020600040A435
:10071000180000000000000000001010205F000022
:1007200000000000000000000000000000000000C9
:1007300000000000000000000000000000000000B9
:10074000000007000F800F800F800F800F800700D0
:10075000070000000000070007000700000000007D
:100760000E380E380E380E3806300000000000003B
:100770000000000000000000000000000000000079
:100780000C300C300C307FFE7FFE0C300C300C3007
:100790000C307FFE7FFE0C300C300C30000000006F
:1007A000024002400FF81FF81A401A401FF00FF8DD
:1007B000025802581FF81FF00240024000000000DB
:1007C000000000000E100E300E7000E001C003802B
:1007D00007000E700C7008700000000000000000A0
:1007E00000000F001980198019800F000F080F9862
:1007F00019F818F018E019F00F9800000000000038
:1008000000000700070007000E00000000000000C5
:1008100000000000000000000000000000000000D8
:10082000000000F001C0038007000E000E000E0063
:100830000E000700038001C000F00000000000006F
:1008400000000F00038001C000E000700070007025
:10085000007000E001C003800F00000000000000F5
:10086000000001801188099007E007E03FFC3FFC91
:1008700007E007E0099011880180000000000000F7
:100880000000000000000180018001800FF00FF0E7
:1008900001800180018000000000000000000000D5
:1008A0000000000000000000000000000000000048
:1008B000000000000700070007000E000000000015
:1008C0000000000000000000000000001FF81FF8FA
:1008D0000000000000000000000000000000000018
:1008E0000000000000000000000000000000000008
:1008F00000000000070007000700000000000000E3
:10090000000000020006000E001C0038007000E02D
:1009100001C0038007000E001C0000000000000062
:1009200000000FF01C381C781CF81CF81DB81DB80E
:100930001F381F381E381C380FF000000000000060
:1009400000000180018003801F801F8003800380DE
:1009500003800380038003801FF00000000000007C
:1009600000000FE01C701C380038007000E001C06F
:10097000038007000E381C381FF80000000000003C
:1009800000000FE01C701C380038007003C003C06A
:10099000007000381C381C700FE0000000000000E0
:1009A000000000E001E003E006E00CE018E01FF8C2
:1009B0001FF800E000E000E003F800000000000085
:1009C00000001FF81C001C001C001C001FE01FF092
:1009D000007800381C381C700FE000000000000098
:1009E000000003E007000E001C001C001FF01FF8B1
:1009F0001C381C381C381C380FF0000000000000A8
:100A000000001FFC1C1C1C1C1C1C001C003800705F
:100A100000E001C0038003800380000000000000AC
:100A200000000FF01C381C381C381F3807E007E0A6
:100A30001CF81C381C381C380FF0000000000000A7
:100A400000000FF01C381C381C381C381FF80FF839
:100A500000380038007000E007C00000000000000F
:100A600000000000000003800380038000000000FD
:100A700003800380038000000000000000000000ED
:100A800000000000000003800380038000000000DD
:100A900003800380038007000000000000000000C6
:100AA000007000E001C0038007000E001C001C0065
:100AB0000E000700038001C000E00070000000008D
:100AC00000000000000000003FFC3FFC00000000B0
:100AD0003FFC3FFC000000000000000000000000A0
:100AE0001C000E000700038001C000E000700070D1
:100AF00000E001C0038007000E001C0000000000A1
:100B000003C00FF01E7818380038007000E001C0F4
:100B100001C00000000001C001C001C000000000D1
:100B20000FF81C1C1C1C1C1C1C1C1CFC1CFC1CFC96
:100B30001CFC1C001C001C001FF007F8000000003B
:100B4000000003C007E00E701C381C381C381C382D
:100B50001FF81C381C381C381C380000000000002E
:100B600000001FF00E380E380E380E380FF00FF060
:100B70000E380E380E380E381FF00000000000004E
:100B8000000007F00E381C381C001C001C001C0064
:100B90001C001C001C380E3807F00000000000008C
:100BA00000001FE00E700E380E380E380E380E386A
:100BB0000E380E380E380E701FE0000000000000E6
:100BC00000001FF80E180E080E000E300FF00FF088
:100BD0000E300E000E080E181FF800000000000076
:100BE00000001FF80E180E080E000E300FF00FF068
:100BF0000E300E000E000E001F000000000000006E
:100C0000000007F00E381C381C381C001C001C00AB
:100C10001CF81C381C380E3807F8000000000000D3
:100C200000001C701C701C701C701C701FF01FF0EA
:100C30001C701C701C701C701C70000000000000F8
:100C400000000FE0038003800380038003800380A3
:100C500003800380038003800FE000000000000099
:100C6000000001FC007000700070007000700070E7
:100C700038703870387038700FE0000000000000E5
:100C800000001E380E380E700EE00FC00F800F806F
:100C90000FC00EE00E700E381E380000000000007D
:100CA00000001F000E000E000E000E000E000E00D1
:100CB0000E000E080E180E381FF80000000000008D
:100CC00000001C1C1E3C1F7C1FFC1FFC1DDC1C9C10
:100CD0001C1C1C1C1C1C1C1C1C1C000000000000FC
:100CE00000001C1C1C1C1E1C1F1C1F9C1DDC1CFC53
:100CF0001C7C1C3C1C1C1C1C1C1C0000000000005C
:100D0000000003E007F00E381C1C1C1C1C1C1C1CE3
:100D10001C1C1C1C0E3807F003E000000000000043
:100D200000001FF00E380E380E380E380FF00FF09E
:100D30000E000E000E000E001F000000000000005C
:100D4000000003E00F780E381C1C1C1C1C1C1C1C13
:100D50001C7C1CFC0FF80FF8003800FC00000000A1
:100D600000001FF00E380E380E380E380FF00FF05E
:100D70000E700E380E380E381E38000000000000CD
:100D800000000FF01C381C381C381C000FE007F066
:100D900000381C381C381C380FF000000000000020
:100DA00000001FFC19CC11C401C001C001C001C06A
:100DB00001C001C001C001C007F000000000000038
:100DC00000001C701C701C701C701C701C701C704F
:100DD0001C701C701C701C700FE0000000000000F4
:100DE00000001C701C701C701C701C701C701C702F
:100DF0001C701C700EE007C00380000000000000A3
:100E000000001C1C1C1C1C1C1C1C1C1C1C9C1C9C5A
:100E10001C9C0FF80FF8077007700000000000001E
:100E200000001C701C701C700EE007C00380038063
:100E300007C00EE01C701C701C7000000000000059
:100E400000001C701C701C701C701C700EE007C031
:100E500003800380038003800FE000000000000097
:100E600000001FF81C381838107000E001C0038023
:100E700007000E081C181C381FF8000000000000B6
:100E8000000007F007000700070007000700070041
:100E9000070007000700070007F00000000000003F
:100EA0000000100018001C000E000700038001C0A5
:100EB00000E000700038001C000700000000000087
:100EC000000007F00070007000700070007000708B
:100ED000007000700070007007F00000000000005B
:100EE000018003C007E00E701C3800000000000005
:100EF00000000000000000000000000000000000F2
:100F000000000000000000000000000000000000E1
:100F1000000000000000000000007FFF7FFF0000D5
:100F200000001C001C00070007000000000000007B
:100F300000000000000000000000000000000000B1
:100F4000000000000000000000000FE000700070D2
:100F50000FF01C701C701C700FD800000000000007
:100F600000001E000E000E000E000FF00E380E38AE
:100F70000E380E380E380E381BF00000000000004E
:100F8000000000000000000000000FE01C701C705A
:100F90001C001C001C701C700FE000000000000012
:100FA000000000F80070007000700FF01C701C70E2
:100FB0001C701C701C701C700FD80000000000001A
:100FC000000000000000000000000FE01C701C701A
:100FD0001FF01C001C701C700FE0000000000000DF
:100FE000000003E007700770070007001FE01FE024
:100FF00007000700070007001FC0000000000000F6
:10100000000000000000000000000FD81C701C70E1
:101010001C701C700FF007F000701C700FE00000D7
:1010200000001E000E000E000E000EF00F380F38EC
:101030000E380E380E380E381E3800000000000042
:10104000000001C001C001C000000FC001C001C00C
:1010500001C001C001C001C00FF800000000000085
:101060000000007000700070000003F0007000705D
:1010700000700070007000701C700CF007E0000041
:1010800000001E000E000E000E000E380E700EE066
:101090000FC00EE00E700E381E3800000000000079
:1010A00000000FC001C001C001C001C001C001C0EB
:1010B00001C001C001C001C00FF800000000000025
:1010C000000000000000000000001FF81C9C1C9C99
:1010D0001C9C1C9C1C9C1C9C1C9C00000000000078
:1010E000000000000000000000001FE01C701C70E9
:1010F0001C701C701C701C701C7000000000000034
:10110000000000000000000000000FE01C701C70D8
:101110001C701C701C701C700FE0000000000000B0
:10112000000000000000000000001BF00E380E3828
:101130000E380E380E380FF00E000E001F000000A3
:10114000000000000000000000001FB038E038E0A0
:1011500038E038E038E01FE000E000E001F0000097
:10116000000000000000000000001EF00FF80F3823
:101170000E000E000E000E001F0000000000000018
:10118000000000000000000000000FE01C301C30D8
:101190000F8003E0187018700FE0000000000000DE
:1011A000000000000100030007001FF00700070017
:1011B000070007000770077003E000000000000050
:1011C000000000000000000000001C701C701C707B
:1011D0001C701C701C701C700FD8000000000000F8
:1011E000000000000000000000001C701C701C705B
:1011F0001C701C700EE007C003800000000000009F
:10120000000000000000000000001C1C1C1C1C1C36
:101210001C9C1C9C0FF80770077000000000000069
:10122000000000000000000000001CE01CE00FC0F7
:10123000078007800FC01CE01CE0000000000000D9
:10124000000000000000000000000E380E380E38CC
:101250000E380E3807F003E000E001C01F800000E8
:10126000000000000000000000001FE018E011C0B6
:10127000038007000E201C601FE00000000000003B
:10128000000001F803800380038007001C001C009D
:10129000070003800380038001F8000000000000C5
:1012A00001C001C001C001C001C001C001C001C036
:1012B00001C001C001C001C001C001C000000000A8
:1012C00000001F8001C001C001C000E000380038EC
:1012D00000E001C001C001C01F800000000000004C
:1012E00000001F1C3B9C39DC38F8000000000000A7
:1012F000000000000000000000000000000020329C
:10130000300A000000000000000000FFFE0001FFA6
:10131000FF0003FFFF8001FFFF600CFFFEF01E00D7
:1013200001F83F0001F83F0001F83F0001F83F00DD
:1013300001F83F0001F83F0001F83F0001F83F00CD
:1013400001F83F0001F83F0001F83F0001F83F00BD
:1013500001F83F0001F83E00007838000018200036
:1013600000080000000020000000380000183E00C7
:1013700000783F0001F83F0001F83F0001F83F000E
:1013800001F83F0001F83F0001F83F0001F83F007D
:1013900001F83F0001F83F0001F83F0001F83F006D
:1013A00001F83F0001F83F0001F81E0000F00CFFBB
:1013B000FE6001FFFF0003FFFF8001FFFF0000FF51
:1013C000FE0000000000000000000000000000001F
:1013D000000000000000000000000000000000000D
:1013E0000060000000F0000001F8000001F80000BB
:1013F00001F8000001F8000001F8000001F8000009
:1014000001F8000001F8000001F8000001F80000F8
:1014100001F8000001F8000001F8000001F80000E8
:101420000078000000180000000800000000000024
:1014300000000000001800000078000001F8000023
:1014400001F8000001F8000001F8000001F80000B8
:1014500001F8000001F8000001F8000001F80000A8
:1014600001F8000001F8000001F8000001F8000098
:1014700001F8000000F00000006000000000000023
:10148000000000000000000000000000000000005C
:101490000000000000000000000000FFFE0001FF4F
:1014A000FF0003FFFF8001FFFF6000FFFEF0000070
:1014B00001F8000001F8000001F8000001F8000048
:1014C00001F8000001F8000001F8000001F8000038
:1014D00001F8000001F8000001F8000001F8000028
:1014E00001F8000001F80000007801FFFE1803FF7A
:1014F000FF880FFFFFE027FFFFC039FFFF003E001E
:1015000000003F0000003F0000003F0000003F00DF
:1015100000003F0000003F0000003F0000003F00CF
:1015200000003F0000003F0000003F0000003F00BF
:1015300000003F0000003F0000001E0000000CFF04
:10154000FE0001FFFF0003FFFF8001FFFF0000FF1F
:10155000FE0000000000000000000000000000008D
:10156000000000FFFE0001FFFF0003FFFF8001FFFE
:10157000FF6000FFFEF0000001F8000001F800002D
:1015800001F8000001F8000001F8000001F8000077
:1015900001F8000001F8000001F8000001F8000067
:1015A00001F8000001F8000001F8000001F8000057
:1015B000007801FFFE1803FFFF880FFFFFE007FF21
:1015C000FFC001FFFF1800000078000001F80000D4
:1015D00001F8000001F8000001F8000001F8000027
:1015E00001F8000001F8000001F8000001F8000017
:1015F00001F8000001F8000001F8000001F8000007
:1016000001F8000000F000FFFE6001FFFF0003FF93
:10161000FF8001FFFF0000FFFE000000000000004F
:1016200000000000000000000000000000000000BA
:10163000000000000000000000600C0000F01E0030
:1016400001F83F0001F83F0001F83F0001F83F00BA
:1016500001F83F0001F83F0001F83F0001F83F00AA
:1016600001F83F0001F83F0001F83F0001F83F009A
:1016700001F83F0001F83E00007839FFFE1823FF13
:10168000FF880FFFFFE007FFFFC001FFFF1800000A
:101690000078000001F8000001F8000001F80000E7
:1016A00001F8000001F8000001F8000001F8000056
:1016B00001F8000001F8000001F8000001F8000046
:1016C00001F8000001F8000001F8000000F000003F
:1016D00000600000000000000000000000000000AA
:1016E00000000000000000000000000000000000FA
:1016F000000000FFFE0001FFFF0003FFFF8001FF6D
:10170000FF000CFFFE001E0000003F0000003F0035
:1017100000003F0000003F0000003F0000003F00CD
:1017200000003F0000003F0000003F0000003F00BD
:1017300000003F0000003F0000003F0000003E00AE
:10174000000039FFFE0023FFFF800FFFFFE007FFCF
:10175000FFC001FFFF1800000078000001F8000042
:1017600001F8000001F8000001F8000001F8000095
:1017700001F8000001F8000001F8000001F8000085
:1017800001F8000001F8000001F8000001F8000075
:1017900001F8000000F000FFFE6001FFFF0003FF02
:1017A000FF8001FFFF0000FFFE00000000000000BE
:1017B0000000000000000000000000FFFE0001FF2C
:1017C000FF0003FFFF8001FFFF000CFFFE001E0073
:1017D00000003F0000003F0000003F0000003F000D
:1017E00000003F0000003F0000003F0000003F00FD
:1017F00000003F0000003F0000003F0000003F00ED
:1018000000003F0000003E00000039FFFE0023FF03
:10181000FF800FFFFFE027FFFFC039FFFF183E00EA
:1018200000783F0001F83F0001F83F0001F83F0059
:1018300001F83F0001F83F0001F83F0001F83F00C8
:1018400001F83F0001F83F0001F83F0001F83F00B8
:1018500001F83F0001F83F0001F81E0000F00CFF06
:10186000FE6001FFFF0003FFFF8001FFFF0000FF9C
:10187000FE0000000000000000000000000000006A
:10188000000000FFFE0001FFFF0003FFFF8001FFDB
:10189000FF6000FFFEF0000001F8000001F800000A
:1018A00001F8000001F8000001F8000001F8000054
:1018B00001F8000001F8000001F8000001F8000044
:1018C00001F8000001F8000001F8000001F8000034
:1018D0000078000000180000000800000000000070
:1018E00000000000001800000078000001F800006F
:1018F00001F8000001F8000001F8000001F8000004
:1019000001F8000001F8000001F8000001F80000F3
:1019100001F8000001F8000001F8000001F80000E3
:1019200001F8000000F0000000600000000000006E
:1019300000000000000000000000000000000000A7
:101940000000000000000000000000FFFE0001FF9A
:10195000FF0003FFFF8001FFFF600CFFFEF01E0091
:1019600001F83F0001F83F0001F83F0001F83F0097
:1019700001F83F0001F83F0001F83F0001F83F0087
:1019800001F83F0001F83F0001F83F0001F83F0077
:1019900001F83F0001F83E00007839FFFE1823FFF0
:1019A000FF880FFFFFE027FFFFC039FFFF183E0051
:1019B00000783F0001F83F0001F83F0001F83F00C8
:1019C00001F83F0001F83F0001F83F0001F83F0037
:1019D00001F83F0001F83F0001F83F0001F83F0027
:1019E00001F83F0001F83F0001F81E0000F00CFF75
:1019F000FE6001FFFF0003FFFF8001FFFF0000FF0B
:101A0000FE000000000000000000000000000000D8
:101A1000000000FFFE0001FFFF0003FFFF8001FF49
:101A2000FF600CFFFEF01E0001F83F0001F83F00D0
:101A300001F83F0001F83F0001F83F0001F83F00C6
:101A400001F83F0001F83F0001F83F0001F83F00B6
:101A500001F83F0001F83F0001F83F0001F83E00A7
:101A6000007839FFFE1823FFFF880FFFFFE007FF14
:101A7000FFC001FFFF1800000078000001F800001F
:101A800001F8000001F8000001F8000001F8000072
:101A900001F8000001F8000001F8000001F8000062
:101AA00001F8000001F8000001F8000001F8000052
:101AB00001F8000000F000FFFE6001FFFF0003FFDF
:101AC000FF8001FFFF0000FFFE000000000000009B
:101AD0000000990DA31511241FBECFEFD1E2DEBF88
:101AE000CDBF00E00CBF12E0A0E0B2E0ECECF1E909
:101AF00000E00BBF02C007900D92A43DB107D9F7DB
:101B000015E0A4EDB2E001C01D92A73BB107E1F7DB
:101B10001AE1C6EDDAE104C02297FE010E94E04816
:101B2000C23DD107C9F70E94BA0E0C94F6450C9439
:101B30000000CF92DF92EF92FF920F931F9384EDFC
:101B400092E062E046E250E027E230E008E210E096
:101B500079E2E72EF12CCC24DD240E94CE4285E0F0
:101B600093E066E045E024E003E032E0E32E0E94EB
:101B700077441F910F91FF90EF90DF90CF900895E1
:101B80008F929F92AF92BF92CF92DF92EF92FF928D
:101B90000F931F93CF93DF938C016B015A0149017F
:101BA0008BE395E060E072E00E940F1885E093E01F
:101BB0000E944E4585E093E00E948244EC0185E05E
:101BC00093E00E94AD447C018BE395E0BE014AE0C6
:101BD00050E00E94F0178BE395E0B7014AE050E037
:101BE0000E94F017C017D1075CF0CC16DD0644F058
:101BF000EA14FB042CF08E149F0414F081E007C05B
:101C00008BE395E06CE072E00E940F1880E0DF91BA
:101C1000CF911F910F91FF90EF90DF90CF90BF90E9
:101C2000AF909F908F9008950F931F93CF93DF9362
:101C3000C0E0D0E081E00E94DB0F817090700C2E3C
:101C400002C0880F991F0A94E2F70827192764E158
:101C500070E080E090E00E9465102196C031D105CF
:101C600049F7C801DF91CF911F910F910895CF924D
:101C7000EF92FF920F931F9304ED12E0C8016FEFF4
:101C80004FEF2FEF0E9481204091100350911103DC
:101C900060E070E0C80120EF30E000EE10E0F5E019
:101CA000EF2EF12CE0E2CE2E0E9445261F910F91DF
:101CB000FF90EF90CF9008950F931F93DF93CF93F2
:101CC000CDB7DEB728970FB6F894DEBF0FBECDBFF5
:101CD0000E94BE108BE395E040E855E260E070E0C2
:101CE0000E94121484ED92E061E00E942B2784EDA3
:101CF00092E00E94EC1F85E093E061E00E94C24503
:101D000085E093E062E00E94E04484ED92E06AE1C5
:101D100077E00E949E2384ED92E060E040E020E0C6
:101D20000E949920DE011196E5E1F2E088E0019041
:101D30000D928150E1F784ED92E06FEF4FEF2FEFBE
:101D40000E94812084ED92E0BE016F5F7F4F40E8EA
:101D500050E020EE30E000E010E00E94762528966A
:101D60000FB6F894DEBF0FBECDBFCF91DF911F91AC
:101D70000F9108952F923F924F925F926F927F92B0
:101D80008F929F92AF92BF92CF92DF92EF92FF928B
:101D90000F931F93DF93CF9300D00F92CDB7DEB791
:101DA0000E945C0EE6C00E94370E0E94140E68E08E
:101DB00071E00E948D486C01B4E1EB2EF12CE80E2D
:101DC000F91E0E94140E68EB70E00E948D488B8310
:101DD0009C830B811C810C5E1F4F84ED92E06FEFA2
:101DE0004FEF2FEF0E9481205E2C4F2C702E612E22
:101DF00084ED92E0B701A80124E130E00E941F21A8
:101E00000E9457104B015C01C60188969A83898312
:101E1000A8E22A2E312CEB81FC812E0E3F1E68C0D9
:101E200085E093E00E94F644882309F461C0C6016E
:101E300069817A814B815C8191010E94C00D882368
:101E4000C9F184ED92E060E04FEF20E00E94812034
:101E500084ED92E0652D742D472D562D24E130E060
:101E60000E941F2180911003909111030A96909374
:101E70001103809310038BE395E060911D024AE00B
:101E800050E00E949217E0901E02F0901F02009115
:101E90002002109121020E945710E80CF91C0A1D23
:101EA0001B1DE61AF70A080B190BC801B7010E949F
:101EB00065101EC084ED92E06FEF40E020E00E94CC
:101EC000812084ED92E0652D742D472D562D24E15F
:101ED00030E00E941F218BE395E060911D024AE0F3
:101EE00050E00E94921780911D02815080931D0244
:101EF0000E945710E0901E02F0901F0200912002F5
:101F000010912102A50194012E0D3F1D401F511F6C
:101F1000621773078407950708F482CFC801B701D9
:101F20000E94FA4623E333E343E75FE30E94C1479D
:101F30000E94CE4660931E0270931F02809320027F
:101F40009093210268EC70E080E090E00E946510C0
:101F500084ED92E060E040E020E00E94812084ED8A
:101F600092E0652D742D472D562D24E130E00E941E
:101F70001F2180911D02882309F015CF8BE395E086
:101F80000E94981480E090E00F900F900F900F90B7
:101F9000CF91DF911F910F91FF90EF90DF90CF9045
:101FA000BF90AF909F908F907F906F905F904F9079
:101FB0003F902F900895382F863308F036532091A4
:101FC0007B00832F86958695869590E08170907032
:101FD00043E0880F991F4A95E1F7277F282B20932C
:101FE0007B003770809122028295880F880F807C59
:101FF000832B80937C0080917A00806480937A00A8
:1020000080917A0086FDFCCF209178004091790084
:10201000942F80E030E0282B392BC90108951F92BE
:102020000F920FB60F9211242F933F938F939F938C
:10203000AF93BF938091160390911703A09118035B
:10204000B091190330911A030196A11DB11D232FE0
:102050002D5F2D3720F02D570196A11DB11D209326
:102060001A038093160390931703A0931803B09359
:1020700019038091120390911303A0911403B0915E
:1020800015030196A11DB11D8093120390931303B4
:10209000A0931403B0931503BF91AF919F918F91BB
:1020A0003F912F910F900FBE0F901F9018958FB7F3
:1020B000F894209116033091170340911803509122
:1020C00019038FBFB901CA0108959B01AC017FB705
:1020D000F8948091120390911303A0911403B0918E
:1020E000150366B5A89B05C06F3F19F00196A11DA9
:1020F000B11D7FBFBA2FA92F982F8827860F911D5A
:10210000A11DB11D62E0880F991FAA1FBB1F6A9510
:10211000D1F7BC012DC0FFB7F894809112039091C4
:102120001303A0911403B0911503E6B5A89B05C055
:10213000EF3F19F00196A11DB11DFFBFBA2FA92FC6
:10214000982F88278E0F911DA11DB11DE2E0880FE9
:10215000991FAA1FBB1FEA95D1F7861B970B885EB4
:102160009340C8F2215030404040504068517C4F6D
:10217000211531054105510571F60895789484B50E
:10218000826084BD84B5816084BD85B5826085BD73
:1021900085B5816085BDEEE6F0E080818160808359
:1021A000E1E8F0E01082808182608083808181603C
:1021B0008083E0E8F0E0808181608083E1EBF0E003
:1021C000808184608083E0EBF0E0808181608083A7
:1021D000E1E9F0E08081826080838081816080839A
:1021E000E0E9F0E0808181608083E1EAF0E08081D5
:1021F00082608083808181608083E0EAF0E080817A
:1022000081608083E1E2F1E080818260808380816F
:1022100081608083E0E2F1E0808181608083EAE791
:10222000F0E080818460808380818260808380810F
:10223000816080838081806880831092C1000895CE
:10224000CF93DF93482F50E0CA018A5E9D4FFC0177
:10225000349140535E4FFA018491882369F190E0F4
:10226000880F991FFC01EE57FE4FA591B491FC0118
:10227000E456FE4FC591D491662351F42FB7F894DC
:102280008C91932F909589238C93888189230BC0FF
:10229000623061F42FB7F8948C91932F9095892335
:1022A0008C938881832B88832FBF06C09FB7F894B7
:1022B0008C91832B8C939FBFDF91CF9108958930B0
:1022C00009F449C08A30A0F4843051F1853040F4DB
:1022D000823079F1833000F5813009F063C026C087
:1022E000873079F1883098F5863009F05BC025C0D9
:1022F0008D3009F442C08E3028F48B30B1F18C302F
:10230000C0F52DC0803109F442C0813109F445C0C7
:102310008F3009F047C037C0809180008F7703C0AD
:10232000809180008F7D80938000089584B58F77A1
:1023300002C084B58F7D84BD08958091B0008F77F1
:1023400003C08091B0008F7D8093B000089580918C
:1023500090008F7707C0809190008F7D03C080919F
:102360009000877F8093900008958091A0008F77E0
:1023700007C08091A0008F7D03C08091A000877F5F
:102380008093A0000895809120018F7703C08091F1
:1023900020018F7D80932001089580912001877F07
:1023A000809320010895FF920F931F93F62E482FDC
:1023B00050E0CA01845A9D4FFC012491CA018A5EF3
:1023C0009D4FFC01149140535E4FFA01049100238C
:1023D000C9F0222319F0822F0E945F11E02FF0E054
:1023E000EE0FFF1FE456FE4FA591B4919FB7F894EE
:1023F000FF2021F48C911095812302C08C91812BB8
:102400008C939FBF1F910F91FF9008950F931F937F
:10241000482F50E0CA01845A9D4FFC012491CA0103
:102420008A5E9D4FFC01049140535E4FFA01149166
:10243000112319F420E030E015C0222319F0822F77
:102440000E945F11812F90E0880F991F8A549E4F40
:10245000FC01A591B4918C9120E030E0802311F033
:1024600021E030E0C9011F910F9108951F920F9252
:102470000FB60F920BB60F9211242F933F934F93E9
:102480008F939F93EF93FF934091C60020915B033E
:1024900030915C032F5F3F4F2F73307080915D034D
:1024A00090915E032817390759F0E0915B03F09192
:1024B0005C03E55EFC4F408330935C0320935B0339
:1024C000FF91EF919F918F914F913F912F910F909D
:1024D0000BBE0F900FBE0F901F9018951F920F927A
:1024E0000FB60F920BB60F9211242F933F934F9379
:1024F0008F939F93EF93FF934091CE002091E3033E
:102500003091E4032F5F3F4F2F7330708091E503CC
:102510009091E6032817390759F0E091E303F09111
:10252000E403ED55FC4F40833093E4032093E30331
:10253000FF91EF919F918F914F913F912F910F902C
:102540000BBE0F900FBE0F901F9018951F920F9209
:102550000FB60F920BB60F9211242F933F934F9308
:102560008F939F93EF93FF934091D60020916B043C
:1025700030916C042F5F3F4F2F73307080916D044A
:1025800090916E042817390759F0E0916B04F0918F
:102590006C04E55DFB4F408330936C0420936B0427
:1025A000FF91EF919F918F914F913F912F910F90BC
:1025B0000BBE0F900FBE0F901F9018951F920F9299
:1025C0000FB60F920BB60F9211242F933F934F9398
:1025D0008F939F93EF93FF93409136012091F304E3
:1025E0003091F4042F5F3F4F2F7330708091F504CA
:1025F0009091F6042817390759F0E091F304F0910F
:10260000F404ED54FB4F40833093F4042093F3041F
:10261000FF91EF919F918F914F913F912F910F904B
:102620000BBE0F900FBE0F901F9018951F920F9228
:102630000FB60F920BB60F9211242F933F938F93E7
:102640009F93EF93FF9320919F033091A00380917C
:10265000A1039091A2032817390731F48091C1009A
:102660008F7D8093C10014C0E091A103F091A2037B
:10267000E15AFC4F20818091A1039091A203019621
:102680008F7390709093A2038093A1032093C60050
:10269000FF91EF919F918F913F912F910F900BBEE2
:1026A0000F900FBE0F901F9018951F920F920FB6AC
:1026B0000F920BB60F9211242F933F938F939F93FA
:1026C000EF93FF93209127043091280480912904EF
:1026D00090912A042817390731F48091C9008F7D21
:1026E0008093C90014C0E0912904F0912A04E951B3
:1026F000FC4F20818091290490912A0401968F73C8
:10270000907090932A04809329042093CE00FF9127
:10271000EF919F918F913F912F910F900BBE0F9052
:102720000FBE0F901F9018951F920F920FB60F9229
:102730000BB60F9211242F933F938F939F93EF9398
:10274000FF932091AF043091B0048091B104909137
:10275000B2042817390731F48091D1008F7D80931E
:10276000D10014C0E091B104F091B204E159FB4FE3
:1027700020818091B1049091B20401968F73907082
:102780009093B2048093B1042093D600FF91EF910F
:102790009F918F913F912F910F900BBE0F900FBE85
:1027A0000F901F9018951F920F920FB60F920BB6B5
:1027B0000F9211242F933F938F939F93EF93FF9347
:1027C00020913705309138058091390590913A056F
:1027D0002817390731F4809131018F7D80933101C1
:1027E00014C0E0913905F0913A05E950FB4F208182
:1027F0008091390590913A0501968F73907090936E
:102800003A058093390520933601FF91EF919F910E
:102810008F913F912F910F900BBE0F900FBE0F9095
:102820001F901895AF92BF92DF92EF92FF920F9395
:102830001F93CF93DF93EC017A018B01DD244030AD
:1028400081EE580780E0680780E0780711F0DD240A
:10285000D39491E0A92EB12CEC89FD89DD2069F09B
:10286000C5010E8C02C0880F991F0A94E2F780837D
:1028700060E079E08DE390E005C0108260E874E8E4
:102880008EE190E0A80197010E94A14821503040BC
:1028900040405040569547953795279580E1203028
:1028A000380720F0DD2011F0DD24D6CFE889F98942
:1028B0003083EA89FB892083EE89FF89408121E00A
:1028C00030E0C9010A8C02C0880F991F0A94E2F710
:1028D000482B4083EE89FF894081C9010B8C02C0DF
:1028E000880F991F0A94E2F7482B4083EE89FF89ED
:1028F0004081C9010C8C02C0880F991F0A94E2F72D
:10290000482B4083EE89FF8980810D8C02C0220F05
:10291000331F0A94E2F7209528232083DF91CF917B
:102920001F910F91FF90EF90DF90BF90AF900895AF
:10293000CF93DF93DC011E968D919C911F97EC0144
:10294000C05CDF4FFC01EE5BFF4F28813981808145
:10295000918128173907C9F75696ED91FC91579741
:10296000408121E030E0C9015A960C905A9702C08C
:10297000880F991F0A94E2F78095842380835696E6
:10298000ED91FC9157974081C9015B960C905B9744
:1029900002C0880F991F0A94E2F7809584238083F0
:1029A0005696ED91FC9157974081C9015C960C9029
:1029B0005C9702C0880F991F0A94E2F780958423E0
:1029C00080835696ED91FC91579780815D960C908F
:1029D0005D9702C0220F331F0A94E2F72095282347
:1029E00020831C96ED91FC911D97EE5BFF4F80813B
:1029F000918192938293DF91CF910895DC011C968F
:102A0000ED91FC911D97E05CFF4F21913191808108
:102A10009181281B390B2F733070C9010895DC0197
:102A20001C96ED91FC911D97E05CFF4F2081318158
:102A3000E054F040DF01AE5BBF4F8D919C91119748
:102A40002817390719F42FEF3FEF07C08D919C919C
:102A5000E80FF91F8081282F30E0C9010895DC01BB
:102A60001C96ED91FC911D97E05CFF4F2081318118
:102A7000E054F040DF01AE5BBF4F8D919C91119708
:102A80002817390719F42FEF3FEF10C08D919C9153
:102A90001197E80FF91F20818D919C911197019654
:102AA0008F73907011969C938E9330E0C9010895B6
:102AB000FC0186859785DC01A05CBF4FFC01EE5BC5
:102AC000FF4F2D913C9111978081918128173907F3
:102AD000C1F70895CF93DF93EC01EE85FF85E05CAD
:102AE000FF4F20813181E054F0402F5F3F4F2F7323
:102AF0003070DF01AE5BBF4F8D919C91119728170D
:102B00003907D1F3E05CFF4F80819181E054F040C0
:102B1000E80FF91F6083EE85FF85E05CFF4F31838E
:102B20002083EE89FF89208181E090E00D8C02C036
:102B3000880F991F0A94E2F7282B208381E090E008
:102B4000DF91CF9108951F9310923E0510923D059D
:102B500028EE33E040E050E020933F0530934005FD
:102B6000409341055093420567E272E070933C0543
:102B700060933B058BE193E0909348058093470574
:102B80008FE593E090934A058093490585EC90E0AA
:102B900090934C0580934B0584EC90E090934E0508
:102BA00080934D0580EC90E09093500580934F0505
:102BB00081EC90E0909352058093510586EC90E073
:102BC000909354058093530514E010935505B3E09A
:102BD000B0935605A7E0A0935705F5E0F09358058C
:102BE000E1E0E093590510925D0510925C05209399
:102BF0005E0530935F0540936005509361057093C7
:102C00005B0560935A0583EA93E090936705809390
:102C1000660587EE93E090936905809368058DECD7
:102C200090E090936B0580936A058CEC90E0909314
:102C30006D0580936C0588EC90E090936F05809310
:102C40006E0589EC90E090937105809370058EEC91
:102C500090E0909373058093720510937405B09380
:102C60007505A0937605F0937705E09378051092AB
:102C70007C0510927B0520937D0530937E05409363
:102C80007F055093800570937A05609379058BE2F8
:102C900094E090938605809385058FE694E0909369
:102CA00088058093870585ED90E090938A05809351
:102CB000890584ED90E090938C0580938B0580EDE1
:102CC00090E090938E0580938D0581ED90E0909338
:102CD000900580938F0586ED90E090939205809308
:102CE000910510939305B0939405A0939505F093E7
:102CF0009605E093970510929B0510929A052093F4
:102D00009C0530939D0540939E0550939F057093BD
:102D100099056093980583EB94E09093A5058093C3
:102D2000A40587EF94E09093A7058093A60585E31B
:102D300091E09093A9058093A80584E391E0909396
:102D4000AB058093AA0580E391E09093AD05809355
:102D5000AC0581E391E09093AF058093AE0586E3E7
:102D600091E09093B1058093B0051093B205B093B4
:102D7000B305A093B405F093B505E093B6051F9194
:102D80000895CF92DF92EF92FF920F931F93CF930C
:102D9000DF937C016B018A01C0E0D0E00FC0D60157
:102DA0006D916D01D701ED91FC910190F081E02DC5
:102DB000C7011995C80FD91F015010400115110501
:102DC00071F7CE01DF91CF911F910F91FF90EF909E
:102DD000DF90CF900895EF92FF920F931F938C0195
:102DE000DC01ED91FC910190F081E02D6DE01995F1
:102DF0007C01D801ED91FC910190F081E02DC8019A
:102E00006AE019959C012E0D3F1DC9011F910F917C
:102E1000FF90EF900895CF93DF93DB010D9000209A
:102E2000E9F71197A61BB70BEC01E881F981028045
:102E3000F381E02DAD011995DF91CF9108954F9267
:102E40005F927F928F929F92AF92BF92CF92DF92CA
:102E5000EF92FF920F931F93DF93CF93CDB7DEB71F
:102E6000A1970FB6F894DEBF0FBECDBF2C01742E14
:102E7000CB01223008F42AE019A231E2C32ED12C72
:102E8000CC0EDD1E822E9924AA24BB24672D752F1B
:102E9000A50194010E94A14879018A01C801B701E6
:102EA000A50194010E946E48472D461B0894C10855
:102EB000D1084A3014F4405D01C0495CF6014083FA
:102EC000E114F1040105110521F07E2C5F2DC801EC
:102ED000DDCFC201B6010E940B17A1960FB6F89480
:102EE000DEBF0FBECDBFCF91DF911F910F91FF903D
:102EF000EF90DF90CF90BF90AF909F908F907F909A
:102F00005F904F900895DC012115310541F4ED915A
:102F1000FC910190F081E02D642F199508950E9495
:102F20001F170895CF92DF92EF92FF920F931F9396
:102F30006C01E62E9A01FF2400E010E0B801A70121
:102F40000E9483178C01C6010E94EB16080F191FFF
:102F5000C8011F910F91FF90EF90DF90CF900895DF
:102F6000CF92DF92EF92FF920F931F93CF93DF9355
:102F7000EC016A017B012115310541F4E881F981F9
:102F80000190F081E02D642F19951FC02A30310582
:102F9000D1F477FF17C0E881F9810190F081E02D2D
:102FA0006DE219958C0144275527BA014C195D092A
:102FB0006E097F09CE012AE00E941F179801280F91
:102FC000391F04C02AE00E941F179C01C901DF912C
:102FD000CF911F910F91FF90EF90DF90CF900895C8
:102FE000CF92DF92EF92FF920F931F936C017B01C0
:102FF0009A010027F7FC0095102FB801A7010E9445
:10300000B0178C01C6010E94EB16080F191FC801EA
:103010001F910F91FF90EF90DF90CF900895EF9266
:10302000FF920F931F937C010E940B178C01C70125
:103030000E94EB16080F191FC8011F910F91FF90F6
:10304000EF900895DC01542F283009F47AC129301B
:1030500020F4213009F051C207C0203109F489C1A0
:10306000213109F04AC29CC11F968C911F97843070
:1030700029F55896ED91FC91599792969C919297CB
:10308000613021F48081892B808304C080819095F8
:10309000982390835A96ED91FC915B97908193963B
:1030A0008C9193978095892380835A96ED91FC911A
:1030B0005B97808193969C9193970AC05096ED916F
:1030C000FC9151975E969C915E97613021F48081CE
:1030D000892B808304C08081909598239083589693
:1030E000ED91FC91599792969C91929757FF04C04D
:1030F0008081892B808304C0808190959823908360
:103100005A96ED91FC915B97908193968C91939751
:103110008095892380835A96ED91FC915B978081FD
:1031200093969C919397892B8083252F332727FD96
:1031300030955896ED91FC91599792969C91929763
:1031400026FF04C08081892B808304C080819095F4
:10315000982390835A96ED91FC915B97908193967A
:103160008C9193978095892380835A96ED91FC9159
:103170005B97808193969C919397892B8083589637
:10318000ED91FC91599792969C91929725FF04C0DE
:103190008081892B808304C08081909598239083BF
:1031A0005A96ED91FC915B97908193968C919397B1
:1031B0008095892380835A96ED91FC915B9780815D
:1031C00093969C919397892B80835896ED91FC91CF
:1031D000599792969C91929724FF04C08081892BE5
:1031E000808304C080819095982390835A96ED91B6
:1031F000FC915B97908193968C919397809589230E
:1032000080835A96ED91FC915B97808193969C9177
:103210009397892B80835896ED91FC9159979296BC
:103220009C91929723FF04C08081892B808304C0E6
:1032300080819095982390835A96ED91FC915B97AD
:10324000908193968C9193978095892380835A9649
:10325000ED91FC915B97808193969C919397892B3C
:1032600080835896ED91FC91599792969C919297F4
:1032700022FF04C08081892B808304C080819095C7
:10328000982390835A96ED91FC915B979081939649
:103290008C9193978095892380835A96ED91FC9128
:1032A0005B97808193969C919397892B8083589606
:1032B000ED91FC91599792969C91929721FF04C0B1
:1032C0008081892B808304C080819095982390838E
:1032D0005A96ED91FC915B97908193968C91939780
:1032E0008095892380835A96ED91FC915B9780812C
:1032F00093969C919397892B80835896ED91FC919E
:10330000599792969C91929720FF04C08081892BB7
:10331000808304C080819095982390835A96ED9184
:10332000FC915B97908193968C91939780958923DC
:1033300080835A96ED91FC915B97808193969C9146
:103340002CC062B95296ED91FC91539790815F9693
:103350008C915F978095892380835296ED91FC91A3
:10336000539780815F969C915F97892B808342B9A8
:1033700002C062B948B95296ED91FC915397908181
:103380005F968C915F978095892380835296ED910B
:10339000FC91539780815F969C91892B808308953F
:1033A000A59844B3262F332727FD3095C901807196
:1033B0009070880F991F482B44BB80910201877E33
:1033C0008093020140910201C901807C9070F3E07A
:1033D00095958795FA95E1F7482B409302018EB1B8
:1033E000847C8EB99EB1862F8C70880F880F637095
:1033F000860F207230703595279535952795820F69
:10340000892B8EB95C96ED91FC915D979081949695
:103410008C9194978095892380835C96ED91FC91A3
:103420005D97808194969C919497892B80835C967C
:10343000ED91FC915D97908194968C9194978095F5
:10344000892380835496ED91FC91559790819096B5
:103450008C919097809589238083A59844B3252FDC
:10346000332727FD3095C90180719070880F991F0F
:10347000482B44BB80910201877E809302014091DA
:103480000201C901807C907063E0959587956A95EB
:10349000E1F7482B409302018EB1847C8EB99EB136
:1034A000852F8C70880F880F5370850F20723070B5
:1034B0003595279535952795820F892B8EB952968C
:1034C000ED91FC91539790815F968C915F978095D9
:1034D000892380835296ED91FC91539780815F966A
:1034E0009C915F97892B80835496ED91FC91559721
:1034F000808190969C91892B80830895AF92BF9292
:10350000CF92DF92EF92FF920F931F93CF93DF93AF
:10351000EC015801690162B948B9C901B80120E15B
:1035200030E040E050E00E94C34879018A0120E089
:1035300030E040E050E0D4C0EA89FB8990818F8D73
:10354000809589238083EA89FB8980819F8D892BDF
:103550008083EA89FB8990818F8D80958923808380
:10356000EA89FB8980819F8D892B8083EA89FB8989
:1035700090818F8D809589238083EA89FB89808162
:103580009F8D892B8083EA89FB8990818F8D80951F
:1035900089238083EA89FB8980819F8D892B8083A1
:1035A000EA89FB8990818F8D809589238083EA89C0
:1035B000FB8980819F8D892B8083EA89FB8990819B
:1035C0008F8D809589238083EA89FB8980819F8DF7
:1035D000892B8083EA89FB8990818F8D809589234F
:1035E0008083EA89FB8980819F8D892B8083EA898A
:1035F000FB8990818F8D809589238083EA89FB895F
:1036000080819F8D892B8083EA89FB8990818F8DB2
:10361000809589238083EA89FB8980819F8D892B0E
:103620008083EA89FB8990818F8D809589238083AF
:10363000EA89FB8980819F8D892B8083EA89FB89B8
:1036400090818F8D809589238083EA89FB89808191
:103650009F8D892B8083EA89FB8990818F8D80954E
:1036600089238083EA89FB8980819F8D892B8083D0
:10367000EA89FB8990818F8D809589238083EA89EF
:10368000FB8980819F8D892B8083EA89FB899081CA
:103690008F8D809589238083EA89FB8980819F8D26
:1036A000892B8083EA89FB8990818F8D809589237E
:1036B0008083EA89FB8980819F8D892B8083EA89B9
:1036C000FB8990818F8D809589238083EA89FB898E
:1036D00080819F8D892B80832F5F3F4F4F4F5F4F9E
:1036E0002E153F05400751070CF426CFD601C50122
:1036F0008F709070A070B0700097A105B10529F18E
:10370000C601B50120E130E040E050E00E94C3482E
:103710009B01AC01EE24FF24870112C0EA89FB89DA
:1037200090818F8D809589238083EA89FB898081B0
:103730009F8D892B80830894E11CF11C011D111DB4
:103740002E153F05400751074CF7DF91CF911F9190
:103750000F91FF90EF90DF90CF90BF90AF900895C2
:10376000AF92BF92CF92DF92EF92FF920F931F938F
:10377000CF93DF93EC0159016A0162B9CA01B90123
:1037800020E130E040E050E00E94C34879018A0126
:1037900020E030E040E050E0A4C1EA89FB8990815C
:1037A0008F8D809589238083EA89FB8980819F8D15
:1037B000892B8083EA89FB8990818F8D809589236D
:1037C0008083EA89FB8980819F8D892B8083EA89A8
:1037D000FB8990818F8D809589238083EA89FB897D
:1037E00080819F8D892B8083EA89FB8990818F8DD1
:1037F000809589238083EA89FB8980819F8D892B2D
:103800008083EA89FB8990818F8D809589238083CD
:10381000EA89FB8980819F8D892B8083EA89FB89D6
:1038200090818F8D809589238083EA89FB898081AF
:103830009F8D892B8083EA89FB8990818F8D80956C
:1038400089238083EA89FB8980819F8D892B8083EE
:10385000EA89FB8990818F8D809589238083EA890D
:10386000FB8980819F8D892B8083EA89FB899081E8
:103870008F8D809589238083EA89FB8980819F8D44
:10388000892B8083EA89FB8990818F8D809589239C
:103890008083EA89FB8980819F8D892B8083EA89D7
:1038A000FB8990818F8D809589238083EA89FB89AC
:1038B00080819F8D892B8083EA89FB8990818F8D00
:1038C000809589238083EA89FB8980819F8D892B5C
:1038D0008083EA89FB8990818F8D809589238083FD
:1038E000EA89FB8980819F8D892B8083EA89FB8906
:1038F00090818F8D809589238083EA89FB898081DF
:103900009F8D892B8083EA89FB8990818F8D80959B
:1039100089238083EA89FB8980819F8D892B80831D
:10392000EA89FB8990818F8D809589238083EA893C
:10393000FB8980819F8D892B8083EA89FB89908117
:103940008F8D809589238083EA89FB8980819F8D73
:10395000892B8083EA89FB8990818F8D80958923CB
:103960008083EA89FB8980819F8D892B8083EA8906
:10397000FB8990818F8D809589238083EA89FB89DB
:1039800080819F8D892B8083EA89FB8990818F8D2F
:10399000809589238083EA89FB8980819F8D892B8B
:1039A0008083EA89FB8990818F8D8095892380832C
:1039B000EA89FB8980819F8D892B8083EA89FB8935
:1039C00090818F8D809589238083EA89FB8980810E
:1039D0009F8D892B8083EA89FB8990818F8D8095CB
:1039E00089238083EA89FB8980819F8D892B80834D
:1039F000EA89FB8990818F8D809589238083EA896C
:103A0000FB8980819F8D892B8083EA89FB89908146
:103A10008F8D809589238083EA89FB8980819F8DA2
:103A2000892B8083EA89FB8990818F8D80958923FA
:103A30008083EA89FB8980819F8D892B8083EA8935
:103A4000FB8990818F8D809589238083EA89FB890A
:103A500080819F8D892B8083EA89FB8990818F8D5E
:103A6000809589238083EA89FB8980819F8D892BBA
:103A70008083EA89FB8990818F8D8095892380835B
:103A8000EA89FB8980819F8D892B8083EA89FB8964
:103A900090818F8D809589238083EA89FB8980813D
:103AA0009F8D892B8083EA89FB8990818F8D8095FA
:103AB00089238083EA89FB8980819F8D892B80837C
:103AC000EA89FB8990818F8D809589238083EA899B
:103AD000FB8980819F8D892B80832F5F3F4F4F4FC4
:103AE0005F4F2E153F05400751070CF456CED60107
:103AF000C5018F709070A070B0700097A105B105DE
:103B000091F1C601B50120E130E040E050E00E94B3
:103B1000C3489B01AC01EE24FF2487011FC0EA8942
:103B2000FB8990818F8D809589238083EA89FB8929
:103B300080819F8D892B8083EA89FB8990818F8D7D
:103B4000809589238083EA89FB8980819F8D892BD9
:103B500080830894E11CF11C011D111D2E153F05E9
:103B600040075107E4F6DF91CF911F910F91FF902D
:103B7000EF90DF90CF90BF90AF900895DC01462F7B
:103B80001E968C911E97813081F05096ED91FC919C
:103B9000519790815E968C915E9780958923808362
:103BA000CD0160E01E962C9103C0CD0160E021E0C4
:103BB0000E94221808951F93CF93DF93EC01262FC4
:103BC000142F8E85813041F0E889F98980819E8D9E
:103BD000892B8083CE0108C0CE0161E0422F21E015
:103BE0000E942218CE0161E0412F2E850E942218EA
:103BF000DF91CF911F910895DC01462F1E968C9185
:103C00001E97813079F05096ED91FC91519780810B
:103C10005E969C915E97892B8083CD0160E01E9615
:103C20002C9103C0CD0161E021E00E94221808958B
:103C3000EF92FF920F931F938C017A010E94BE1D99
:103C40006F2D772767FD7A95C8014E2D0E94DB1DE9
:103C50001F910F91FF90EF900895AF92BF92CF9276
:103C6000DF92EF92FF920F931F93CF93DF93EC01BC
:103C70007B015A0169018C81813059F429853A858B
:103C8000A901461B570B2C193D0968018A017501D2
:103C900059018D85E82FF0E0E032F10508F074C19C
:103CA000EE58FF4FEE0FFF1F0590F491E02D199491
:103CB000CE0162E04F2D50E00E94181ECE0163E05D
:103CC000A7010E94181ECE0164E04D2D50E00E9415
:103CD000181ECE0165E0A6010E94181ECE0166E006
:103CE0004B2D50E00E94181ECE0167E0A5010E94F6
:103CF000181ECE0168E0412F50E08CC0CE016AE270
:103D00000E94BE1DCE0160E04F2D0E94DB1DCE0142
:103D100060E04E2D0E94DB1DCE0160E04D2D0E9423
:103D2000DB1DCE0160E04C2D0E94DB1DCE016BE25D
:103D30000E94BE1DCE0160E04B2D0E94DB1DCE0116
:103D400060E04A2D0E94DB1DCE0160E0412F0E9401
:103D5000DB1DCE0160E0402F0E94DB1D11C15C2DF8
:103D600044274E0D5F1DCE0164E40E94181ECE0153
:103D700065E4A5010E94181ECE0166E4A8010E9418
:103D8000181ECE016EE4A7010E94181ECE016FE43A
:103D9000B2C0CE0160E2A7010E94181ECE0161E20E
:103DA000A5010E94181ECE0160E5A7010E94181E01
:103DB000CE0162E5A5010E94181ECE0161E5A601B3
:103DC0000E94181ECE0163E529C0CE0162E040E0EA
:103DD00050E00E94181ECE0163E0A7010E94181E49
:103DE000CE0164E040E050E00E94181ECE0165E084
:103DF000A6010E94181ECE0166E040E050E00E943D
:103E0000181ECE0167E0A5010E94181ECE0168E0D1
:103E100040E050E00E94181ECE0169E0A8016CC08D
:103E2000CE016AE20E94BE1DCE016E2D0E94FC1DD5
:103E3000CE016C2D0E94FC1DCE016BE20E94BE1DC6
:103E4000CE016A2D97C0CE016AE20E94BE1DCE014E
:103E50006B2D0E94FC1DCE016A2D0E94FC1DCE011F
:103E6000612F0E94FC1DCE01602F0E94FC1DCE011F
:103E70006BE20E94BE1DCE016F2D0E94FC1DCE0183
:103E80006E2D0E94FC1DCE016D2D0E94FC1DCE01E9
:103E90006C2D74C05C2D44274E295F29CE0166E449
:103EA0000E94181ECE0167E4A8010E94181ECE01D0
:103EB00068E4A5010E94181ECE0160E2A70117C0A8
:103EC000CE0166E3A6010E94181ECE0167E3A7019A
:103ED0000E94181ECE0168E3A8010E94181ECE01A0
:103EE00069E3A5010E94181ECE0160E2A7010E94AD
:103EF000181ECE0161E2A5010E94181ECE0162E2E9
:103F000041C0CE0162E0A5010E94181ECE0163E00F
:103F1000A7010E94181ECE0166E0A8010E94181E8B
:103F2000CE0167E0A6010E94181ECE016FE02AC0F4
:103F3000CE016AE20E94BE1DCE016F2D0E94FC1DC3
:103F4000CE016E2D0E94FC1DCE016D2D0E94FC1D28
:103F5000CE016C2D0E94FC1DCE016BE20E94BE1DA5
:103F6000CE016B2D0E94FC1DCE016A2D0E94FC1D0E
:103F7000CE01612F0E94FC1DCE01602F0E94FC1D0E
:103F8000CE016CE20E94BE1DDF91CF911F910F9177
:103F9000FF90EF90DF90CF90BF90AF9008950F9378
:103FA0001F93FC018481A581B68101851285882338
:103FB00039F4CF0160E070E040E050E09D0107C0BF
:103FC000CF0160E070E040E050E098018D010E9478
:103FD0002D1E1F910F910895EF92FF920F931F9343
:103FE000CF93DF93EC01EC89FD89908188A18095C6
:103FF00089238083CE010E94CF1F8E85813031F0CE
:10400000E889F98980819E8D892B80838E85803116
:10401000E1F469857A858B859C856F5F7F4F8F4F33
:104020009F4F2D813E814F8158852F5F3F4F4F4FCE
:104030005F4F0E946E488B019C01CE0160E070E0F2
:1040400040E050E00E947E1A4FC0883021F0EE24FC
:10405000FF24870132C069857A858B859C856F5FD7
:104060007F4F8F4F9F4F2D813E814F8158852F5F0E
:104070003F4F4F4F5F4F0E946E489B01AC01CE01F6
:1040800060E070E00E94B01B2FC02E85213021F02F
:10409000CE0160E040E00AC0CE0161E040E021E0F6
:1040A0000E942218CE0161E040E02E850E94221875
:1040B0000894E11CF11C011D111D69857A858B8511
:1040C0009C856F5F7F4F8F4F9F4F2D813E814F812A
:1040D00058852F5F3F4F4F4F5F4F0E946E48E61647
:1040E000F706080719078CF2EC89FD89808198A1F1
:1040F000892B8083DF91CF911F910F91FF90EF90DB
:104100000895FC0150E0CA01B5E095958795BA95F0
:10411000E1F7687F682B60832695269526954C717C
:104120005070A3E0440F551FAA95E1F7242B21837B
:104130000895FC0150E0CA0135E0959587953A95C0
:10414000E1F7687F682B62832695269526954C714A
:10415000507083E0440F551F8A95E1F7242B238389
:1041600010AA0895462F672F0E94DB1D0895EF9235
:10417000FF920F931F93CF93DF93EC018A01790194
:1041800037FF06C0F094E194F108F3946E197F09AB
:10419000EC89FD89908188A180958923808397018E
:1041A000260F371FCE01A8010E942D1E8E8580315B
:1041B00099F4E889F98980819E8D892B80836881B3
:1041C00049818701222717FD2095322FCE0170E00B
:1041D00050E00E947E1A23C08830A9F4988189811A
:1041E000981789F4E889F98980819E8D892B8083CD
:1041F00068819701442737FD4095542FCE0170E028
:104200000E94B01B0CC000E010E0CE016881498123
:104210000E94DB1D0F5F1F4FE016F106B4F7EC891B
:10422000FD89808198A1892B8083CE010E94CF1FB8
:10423000DF91CF911F910F91FF90EF9008952F92F2
:104240003F924F925F926F927F928F929F92AF9226
:10425000BF92CF92DF92EF92FF920F931F93CF9373
:10426000DF933C011B01CC24DD24C21AD30A229F18
:104270002001239F500C329F500C11244601840EC4
:10428000951E5A01AC18BD08E6012EC0229FC00140
:10429000239F900D329F900D1124840F951F481677
:1042A0005906B4F08901020D131D220F331FEE24AD
:1042B000FF24E21AF30AC301B801A40197010E9486
:1042C000B720C301B801A50197010E94B72005C01E
:1042D0002F5F3F4F12161306CCF621960894811CCF
:1042E000911C0894A108B1081C161D064CF0CC9F27
:1042F000A001CD9F500DDC9F500D11249601EACFF7
:10430000DF91CF911F910F91FF90EF90DF90CF90B1
:10431000BF90AF909F908F907F906F905F904F90E5
:104320003F902F9008952F923F924F925F926F92FD
:104330007F928F929F92AF92BF92CF92DF92EF9235
:10434000FF920F931F93DF93CF93CDB7DEB72C97D8
:104350000FB6F894DEBF0FBECDBF9C878B875C8302
:104360004B831901DC015496ED91FC915597908196
:1043700090968C919097809589238083D0968C918C
:10438000D097882309F020C114968C9114979C969D
:104390000C919C979D969C91E62EFF24882309F012
:1043A00078C0202F30E021503040240F351F092FD6
:1043B00010E001501040020D131D8B859C856B8110
:1043C0007C81A1010E942D1EEB85FC8584A586952C
:1043D0008695869525A5829FC001112426A5E21AFF
:1043E000F1088E9D50018F9DB00C9E9DB00C112444
:1043F00044E050E0A40EB51E882499243BC0AB8550
:10440000BC859A96ED91FC919B97EA0DFB1DE4917A
:1044100007E010E06E2E7724C301002E02C09595B0
:1044200087950A94E2F780FF0AC0EB85FC85F0804F
:10443000EE24618170E06E297F29CF010DC0AB852C
:10444000BC851296DC901297CC2413966C9113972E
:1044500070E06C297D29CD010E94B22001501040EE
:10446000BFEF0F3F1B07C1F60894A11CB11C0894B5
:10447000811C911CEB85FC8584A586958695869587
:1044800025A5829FC00111248816990608F4B7CF8C
:104490002DC1069506950695099F90011124AB85BF
:1044A000BC859E968C91E81AF1082E9D50012F9D97
:1044B000B00C3E9DB00C1124E4E0F0E0AE0EBF1E47
:1044C0004424552471C0C20170E00E948D488B01C4
:1044D000020D131D30E0215030404B815C81240FD0
:1044E000351F8B859C85BA01A8010E942D1EAB85C6
:1044F000BC859C968C91869586958695E82EFF24A2
:104500000894E108F1086701CA0CDB1C3BC0AB85CD
:10451000BC859A96ED91FC919B97EC0DFD1DE49165
:1045200000E010E04E2F50E05E834D838D819E8130
:10453000002E02C0959587950A94E2F780FF0CC083
:10454000AB85BC859C90882411966C91119770E086
:1045500068297929CD0109C0EB85FC857280662424
:10456000638170E066297729CF010E94B2200F5F36
:104570001F4F08301105D1F60894E108F10808949E
:10458000C108D108FFEFEF16FFEFFF0609F0BFCF1C
:10459000AB85BC859C968C9186958695869590E09A
:1045A000A80EB91E480E591EEB85FC8524A5622F66
:1045B00066956695669585A5689FC0011124481685
:1045C000590608F480CF92C0AB85BC859C962C918F
:1045D0009C972695269526959D968C919D97289F2C
:1045E00090011124862F90E09E964C91841B910996
:1045F000289F5001299FB00C389FB00C1124E4E093
:10460000F0E0AE0EBF1E3101222433245EC0C6018D
:104610008A0D9B1DAB85BC859A96ED91FC919B976D
:10462000E80FF91FE491B201B7E0EB2EF12C4E2F09
:1046300050E058874F83CB0101969A8389838B85FD
:104640009C85A30129813A8109851A850E942D1E26
:104650008F8198850E2C02C0959587950A94E2F774
:1046600080FF0DC0AB85BC859C90882411966C9111
:10467000119770E068297929CD010E94B220089431
:10468000E108F108BFEFEB16BFEFFB0619F06981F7
:104690007A81D1CF0894C11CD11CE8E0F0E04E0E25
:1046A0005F1EAB85BC859C968C918695869586957C
:1046B00090E0C816D9060CF4AACFA80EB91E08942B
:1046C000211C311C0894611C711CEB85FC8585A59F
:1046D00090E02816390650F44B805C80CC24DD2411
:1046E000A3014F5F5F4F5A874987DBCFAB85BC85FE
:1046F0005496ED91FC915597808190969C91892BD1
:1047000080838B859C850E94CF1F2C960FB6F894D2
:10471000DEBF0FBECDBFCF91DF911F910F91FF90F4
:10472000EF90DF90CF90BF90AF909F908F907F9051
:104730006F905F904F903F902F900895DC01FB01A8
:104740009B967C936E939A9784919C968C939C975E
:10475000319684919D968C939D97319684919E96E7
:104760008C939E973196E4919F96EC9308952F92A7
:104770003F924F925F926F927F928F929F92AF92F1
:10478000BF92CF92DF92EF92FF920F931F93DF932E
:10479000CF93CDB7DEB7E1970FB6F894DEBF0FBE6B
:1047A000CDBF99AB88ABC62E5A014901198F088F2E
:1047B000B701882777FD8095982F0E94FC4629E253
:1047C0003CE54FE85CE30E94C1476E8F7F8F88A372
:1047D00099A3A8A9B9A95496ED91FC9155979081F8
:1047E00090968C9190978095892380839C968C914C
:1047F0009C978695869586959D962C919D97829FF0
:10480000C0011124DD249E962C91C21AD1088C9DE2
:10481000F0018D9DF00D9C9DF00D11243496FE83CA
:10482000ED831F829501442737FD4095542F28A71B
:1048300039A74AA75BA7C401AA2797FDA095BA2F5D
:104840008CA79DA7AEA7BFA712C18B819C81AD810C
:10485000BE818A0F9B1FA8A9B9A99A96ED91FC91D8
:104860009B97E80FF91FC4902E8D3F8D48A159A149
:10487000B901CA010E945E466C8B7D8B8E8B9F8B2B
:104880006CA17DA18EA19FA10E94FC467B018C01A1
:104890002E8D3F8D48A159A1B901CA010E9424481B
:1048A000688B798B8A8B9B8BC801B70128893989E2
:1048B0004A895B890E94C1476C877D878E879F8765
:1048C000C801B7012C893D894E895F890E94C14783
:1048D000688779878A879B8722243324EC2DF0E030
:1048E000FBA3EAA3A8A9B9A99C968C9190E0E88DB6
:1048F000F98DE89FB001E99F700DF89F700D1124AC
:1049000029813A81620F731F620D731D882777FD1D
:104910008095982F0E94FC464B015C0168A579A503
:104920008AA59BA50E94FC467B018C01C501B401B0
:104930002C893D894E895F890E94C1472C853D8520
:104940004E855F850E94F9459B01AC01C801B70106
:104950000E94FA450E94C9462B013C016B016CA5DF
:104960007DA58EA59FA50E94FC467B018C01C501FB
:10497000B401288939894A895B890E94C1479B0112
:10498000AC01688579858A859B850E94FA459B01E3
:10499000AC01C801B7010E94FA450E94C9469B01BB
:1049A000AC018B010894C11CD11C0F5F1F4F88A95B
:1049B00099A9B201A90196010E942D1E87E090E0FD
:1049C000821993094AA15BA102C0559547958A9522
:1049D000E2F740FF0CC0A8A9B9A9BC91BB8F1A8E01
:1049E000E8A9F9A9618170E02A8D3B8D11C0A8A9C1
:1049F000B9A9D0968C91D097882379F41296BC915E
:104A0000BD8F1C8EE8A9F9A9638170E02C8D3D8DC6
:104A1000622B732BCF010E94B2200894211C311C01
:104A200038E02316310409F05DCF4B815C814F5F84
:104A30005F4F5C834B8389819A8108969A8389832F
:104A4000A8A9B9A99C968C9186958695869590E0A3
:104A5000EB81FC81E817F9070CF4F7CE2D813E813C
:104A6000280F391F3E832D833F813F5F3F83A8A9D5
:104A7000B9A99D968C91BF81B81780F41C821B82C6
:104A80001A8219828B2F90E09C01442737FD4095B4
:104A9000542F2CA33DA34EA35FA3D2CFA8A9B9A99D
:104AA0005496ED91FC915597808190969C91892B1D
:104AB000808388A999A90E94CF1FE1960FB6F89428
:104AC000DEBF0FBECDBFCF91DF911F910F91FF9041
:104AD000EF90DF90CF90BF90AF909F908F907F909E
:104AE0006F905F904F903F902F9008952F923F923C
:104AF0004F925F926F927F928F929F92AF92BF92EE
:104B0000CF92DF92EF92FF920F931F93CF93DF9399
:104B10005C01F62EE72EEA0119012801E62FF72F96
:104B2000DF010D900020E9F73D010894610871084C
:104B30006E1A7F0AFC018481882321F5F7E24F3049
:104B40005F0799F4D5011596CD91DC9116972196C2
:104B50009C968C9190E0FC01E69DC001E79D900D34
:104B6000F69D900D1124C81BD90BF7E2CE30DF075C
:104B700009F048C0D50115966D917D918D919C915C
:104B8000189722C0F7E24F305F0799F4D5011996C4
:104B9000CD91DC911A9721969C968C9190E0FC0126
:104BA000E69DC001E79D900DF69D900D1124C81B58
:104BB000D90BF7E2CE30DF0729F5D50119966D91B3
:104BC0007D918D919C911C976F5F7F4F8F4F9F4F71
:104BD0009C962C9130E0F901E69D9001E79D300D07
:104BE000F69D300D1124442737FD4095542F621B4C
:104BF000730B840B950B22E030E040E050E00E9404
:104C0000C348E9018F2D9E2D9C014901CC24DD2450
:104C100026C041145104A1F4D5019C968C9190E0DA
:104C2000C89EA001C99E500DD89E500D11244C0F56
:104C30005D1FC501F401608191010E94932109C0AB
:104C4000C501D4016C91AE019101860172010E94EF
:104C5000B7230894C11CD11C0894811C911CC61454
:104C6000D704BCF2DF91CF911F910F91FF90EF908D
:104C7000DF90CF90BF90AF909F908F907F906F907C
:104C80005F904F903F902F9008952F923F924F92B8
:104C90005F926F927F928F929F92AF92BF92CF92CC
:104CA000DF92EF92FF920F931F93DF93CF93CDB7D5
:104CB000DEB7E6970FB6F894DEBF0FBECDBF2C016E
:104CC0004A015B0119011EAB0DAB370141155105BE
:104CD0006105710511F5E114F104D9F0A0E0B0E02F
:104CE0000894E108F1089E01265E3F4F05C0F901D6
:104CF000EA0FFB1FC0821196AE15BF05C4F32A0F41
:104D00003B1F80E3F9018083AC0FBD1F5B961C92B3
:104D10007EC080E38A8F1B8E7AC077FD02C0DD24BF
:104D20000AC0B094A09490948094811C911CA11C02
:104D3000B11CDD24D39400E010E07E010894E11C56
:104D4000F11CC501B4012AE030E040E050E00E94CF
:104D5000C3489B01AC01F701E00FF11F862F805D76
:104D600080830F5F1F4F821A930AA40AB50AC501F8
:104D7000B4012AE030E040E050E00E94C348C9019D
:104D8000DA014C015D01181419041A041B04CCF259
:104D9000E00EF11EF7011082DD2011F08DE28A8F06
:104DA0008D2D90E0B801680F791F661577051CF00E
:104DB00040E050E012C0FE017A96E80FF91F40E093
:104DC00050E07301E01AF10AE81AF90A03C0C1922F
:104DD0004F5F5F4F4E155F05D4F3DE01A00FB11F8B
:104DE000FE017A96840F951FE80FF91F20E030E04E
:104DF0008C9181932F5F3F4F119720173107C4F398
:104E0000FE013196E40FF51FE60FF71F118EC20168
:104E1000BE01665E7F4FA1012DA93EA900E010E012
:104E20000E947625E6960FB6F894DEBF0FBECDBF82
:104E3000CF91DF911F910F91FF90EF90DF90CF9076
:104E4000BF90AF909F908F907F906F905F904F90AA
:104E50003F902F9008950F931F93CF93DF93EC0112
:104E60006C838DA161E00E9420118EA161E00E94FF
:104E700020118FA161E00E94201188A58F3F19F0B9
:104E800061E00E9420118E85813129F0813039F452
:104E90008F85853021F489A561E00E9420118E85DF
:104EA000813079F0813131F09FEF91B9803149F44F
:104EB00097B907C088E18093010180E283BB8BE34F
:104EC0008DB9EE89FF89808199A1892B808365E066
:104ED00070E080E090E00E946510EE89FF8990818B
:104EE00089A18095892380836FE070E080E090E065
:104EF0000E946510EE89FF89808199A1892B8083AA
:104F00006FE070E080E090E00E946510EC89FD8920
:104F1000908188A18095892380838D85E82FF0E09A
:104F2000E032F10510F00C94BB42EE56FF4FEE0F4D
:104F3000FF1F0590F491E02D1994CE0166E444EA38
:104F400050E00E94181ECE0167E443E550E00E9445
:104F5000181ECE0168E440E050E00E94181ECE0109
:104F600069E444E450E00E94181ECE016AE444E083
:104F700050E00E94181ECE016BE447E650E00E940C
:104F8000181ECE016CE443E350E00E94181ECE01CF
:104F90006DE447E750E00E94181ECE016EE442E146
:104FA00050E00E94181ECE016FE44CE450E00E94D5
:104FB000181ECE0160E546E450E00E94181ECE01A6
:104FC00061E544E450E00E94181ECE0162E040E03A
:104FD00050E00E94181ECE0163E040E050E00E94C5
:104FE000181ECE0164E040E050E00E94181ECE0181
:104FF00065E04FEE50E00E94181ECE0166E040E0F2
:1050000050E00E94181ECE0167E040E050E00E9490
:10501000181ECE0168E041E050E00E94181ECE014B
:1050200069E04FE350E00E94181ECE0161E046E0C7
:1050300050E00E94181ECE0166E148EC50E00E944C
:10504000181ECE0163E245E950E00E94181ECE0111
:1050500064E245E950E00E94181ECE0165E24FEF80
:1050600050E00E94181ECE0167E242E050E00E942C
:10507000181ECE0168E242E050E00E94181ECE01E8
:1050800069E242E050E00E94181ECE016AE242E06E
:1050900050E00E94181ECE016CE242E050E00E94F7
:1050A000181ECE016DE242E050E00E94181ECE01B3
:1050B0006AE341E050E00E94181ECE016BE340E03D
:1050C00050E00E94181ECE016CE340EF50E00E94B9
:1050D000181ECE016DE340E050E00E94181E61E012
:1050E00070E080E090E00E946510CE0165E348E347
:1050F00050E00E94181ECE0166E348E750E00E948F
:10510000181ECE016EE348E350E00E94181ECE0147
:1051100060E44FE050E00E94181ECE0161E440EFD1
:1051200050E00E94181ECE0169E149E450E00E945F
:10513000181ECE0163E94FE050E00E94181E61E0A6
:1051400070E080E090E00E946510CE0160E240E4F3
:1051500050E00E94181ECE016DE147E050E00E9431
:10516000181ECE016EE140E050E00E94181ECE01F4
:105170006FE144E050E00E94181ECE0164E44DE46B
:1051800050E00E94181ECE0165E44EE050E00E94FF
:10519000181E61E070E080E090E00E946510CE0192
:1051A0006CE144E050E00E94181E62E070E080E094
:1051B00090E00E946510CE016BE148E150E00E9452
:1051C000181E61E070E080E090E00E946510CE0162
:1051D0006BE140E150E00E94181E61E070E080E069
:1051E00090E00E946510CE0163E440E850E00E9428
:1051F000181E62E070E080E090E00E946510CE0131
:1052000060E94FE750E00E94181ECE0166E244E0DC
:1052100050E00E94181E61E070E080E090E00E9483
:105220006510CE0166E244E250E00E94181ECE01F5
:1052300066E24CE250E00E94181E61E070E080E0FF
:1052400090E00E946510CE0166E24CE350E00E94BF
:10525000181ECE0167E542E050E00E94181ECE0104
:1052600065E941E050E00E94181ECE0167E517C2D3
:10527000CE0169EE0E94BE1DCE0160E040E20E94B8
:10528000DB1DCE0161E10E94BE1D64E670E080E09E
:1052900090E00E946510CE0161ED0E94BE1DCE011E
:1052A00060E040E00E94DB1DCE0160E041E70E942B
:1052B000DB1DCE0160E049E10E94DB1DCE0160ED07
:1052C0000E94BE1DCE0160E047E00E94DB1DCE01C2
:1052D00060E041E00E94DB1DCE0160E048E00E94FA
:1052E000DB1DCE0166E30E94BE1DCE0160E048E4F6
:1052F0000E94DB1DCE016AE30E94BE1DCE0160E06C
:1053000045E00E94DB1DCE0161EC0E94BE1DCE0176
:1053100060E040E10E94DB1DCE0160E040E10E94C0
:10532000DB1DCE0160E042E00E94DB1DCE0160E0AB
:1053300042E00E94DB1DCE0160EC0E94BE1DCE014A
:1053400060E040E00E94DB1DCE0160E045E30E948A
:10535000DB1DCE0160E040E00E94DB1DCE0160E07D
:1053600040E00E94DB1DCE0160E041E00E94DB1DB9
:10537000CE0160E042E00E94DB1DCE0165EC0E94A0
:10538000BE1DCE0160E044E00E94DB1DCE0162ED57
:105390000E94BE1DCE0160E041E00E94DB1DCE01F7
:1053A00060E044E40E94DB1DCE0168EC0E94BE1D5B
:1053B000CE0160E044E00E94DB1DCE0160E047E6E4
:1053C0000E94DB1DCE0160E045E30E94DB1DCE01A3
:1053D00060E044E00E94DB1DCE0160E048E00E94F6
:1053E000DB1DCE0160E046E00E94DB1DCE0160E0E7
:1053F00044E20E94DB1DCE0160E041E00E94DB1D23
:10540000CE0160E047E30E94DB1DCE0160E040E496
:105410000E94DB1DCE0160E043E00E94DB1DCE0157
:1054200060E040E10E94DB1DCE0160E048E00E94A8
:10543000DB1DCE0160E040E80E94DB1DCE0160E094
:1054400040E00E94DB1DCE016AE20E94BE1DCE013B
:1054500060E040E00E94DB1DCE0160E040E00E9481
:10546000DB1DCE0160E040E00E94DB1DCE0160E06C
:105470004FEE0E94DB1DCE016BE20E94BE1DCE01ED
:1054800060E040E00E94DB1DCE0160E040E00E9451
:10549000DB1DCE0160E041E00E94DB1DCE0160E03B
:1054A0004FE80E94DB1DCE0169E20E94BE1DCE01C5
:1054B0006CE20E94BE1D0C94BB42CE0160E041E054
:1054C00050E00E94181ECE0163E044EA58EA0E94B0
:1054D000181ECE016CE040E050E00E94181ECE0184
:1054E0006DE04CE058E00E94181ECE016EE040E0F6
:1054F0005BE20E94181ECE016EE147EB50E00E9475
:10550000181ECE0161E04FE35BE20E94181ECE013F
:1055100062E040E056E00E94181ECE0160E140E0EB
:1055200050E00E94181ECE0161E140E750E60E9463
:10553000181ECE0165E040E050E00E94181ECE012A
:1055400066E040E050E00E94181ECE0166E14CE1AA
:105550005FEE0E94181ECE0167E143E050E00E941A
:10556000181ECE0167E043E352E00E94181ECE01F0
:105570006BE040E050E00E94181ECE016FE040E07A
:1055800050E00E94181ECE0161E440E050E00E940D
:10559000181ECE0162E440E050E00E94181ECE01C9
:1055A00068E440E050E00E94181ECE0169E44FE339
:1055B00051E00E94181ECE016AE440E050E00E94D3
:1055C000181ECE016BE440E050E00E94181ECE0190
:1055D00064E440E05FEE0E94181ECE0165E440E006
:1055E00050E00E94181ECE0166E44FE351E00E9495
:1055F000181ECE0160E347E057E00E94181ECE015E
:1056000061E344E052E00E94181ECE0162E344E0F0
:1056100052E00E94181ECE0163E342E055E00E9472
:10562000181ECE0164E347E055E00E94181ECE012B
:1056300065E344E052E00E94181ECE0166E344E0B8
:1056400052E00E94181ECE0167E342E055E00E943E
:10565000181ECE016AE342E053E00E94181ECE01FC
:105660006BE342E053E00E94181ECE0163E240E08B
:1056700050E00E94181ECE0164E240E050E00E941B
:10568000181ECE0165E240E050E80E94181ECE01CF
:105690006FE440E050E00E94181ECE016EE440E04E
:1056A00050E00C94553CCE0165EE40EF58E70E9467
:1056B000181ECE0161E040E051E00E94181ECE01AC
:1056C00062E040E057E00E94181ECE0163E040E334
:1056D00050E10E94181ECE0164E040E050E00E94BC
:1056E000181ECE0168E047E052E00E94181ECE016D
:1056F00069E040E050E00E94181ECE016AE040E000
:1057000050E00E94181ECE016CE040E050E00E9484
:10571000181ECE016DE040E050E00E94181ECE0140
:105720006FE040E050E00E94181ECE0160E140E0D2
:1057300050E00E94181ECE0161E147E050E00E9457
:10574000181ECE0162E140E050E00E94181ECE011A
:1057500063E140E050E00E94181ECE0167E041E0A6
:1057600050E00E94181E68EC70E080E090E00E941B
:105770006510CE0160E140E950E10E94181ECE01A3
:1057800061E147E252E00E94181E62E370E080E0AF
:1057900090E00E946510CE0162E14FE150E00E946E
:1057A000181E62E370E080E090E00E946510CE0178
:1057B00063E140E055E10E94181ECE0169E247E234
:1057C00050E00E94181ECE016BE24DE050E00E94B6
:1057D000181E62E370E080E090E00E946510CE0148
:1057E00060E240E050E00E94181ECE0161E240E01D
:1057F00050E00E94181ECE0160E340E050E00E949D
:10580000181ECE0161E347E057E00E94181ECE014A
:1058100062E347E053E00E94181ECE0165E340E0DA
:1058200052E00E94181ECE0166E348E050E00E945C
:10583000181ECE0167E344E050E00E94181ECE011E
:1058400068E340E050E00E94181ECE0169E347E0A3
:1058500057E00E94181ECE016CE342E050E00E9427
:10586000181ECE016DE344E05DE10E94181ECE01DA
:1058700060E540E050E00E94181ECE0161E54FEE69
:1058800050E00E94181ECE0162E540E050E00E9408
:10589000181ECE0163E54FE351E00E94181ECE01B1
:1058A00060E640E057EA0E94181ECE0161E641E042
:1058B00050E00E94181ECE016AE640E050E00E94CF
:1058C000181ECE0160E840E050E00E94181ECE0194
:1058D00061E840E050E00E94181ECE0162E840E01E
:1058E00050E00E94181ECE0163E840E050E00E94A4
:1058F000181ECE0164E840E050E00E94181ECE0160
:1059000065E840E050E00E94181ECE0160E940E1E9
:1059100050E00E94181ECE0162E940E056E03CC112
:10592000CE0165EE40EF58E70E94181ECE0161E0FF
:1059300040E051E00E94181ECE0162E040E052E0DB
:105940000E94181ECE0163E040E350E10E94181E41
:10595000CE0164E040E050E00E94181ECE0168E0F5
:1059600047E052E00E94181ECE0169E040E050E09E
:105970000E94181ECE016AE040E050E00E94181E0E
:10598000CE016CE040E050E00E94181ECE016DE0B8
:1059900040E050E00E94181ECE016FE040E050E071
:1059A0000E94181ECE0160E140E050E00E94181EE7
:1059B000CE0161E147E050E00E94181ECE0162E195
:1059C00040E050E00E94181ECE0163E140E050E04C
:1059D0000E94181ECE0167E041E050E00E94181EB0
:1059E00068EC70E080E090E00E946510CE0160E11C
:1059F00040E956E10E94181ECE0161E147E252E003
:105A00000E94181E62E370E080E090E00E94651042
:105A1000CE0162E14DE050E00E94181E62E370E0AA
:105A200080E090E00E946510CE0163E140E052E129
:105A30000E94181ECE0169E24AE050E00E94181E42
:105A4000CE016BE24DE050E00E94181E62E370E070
:105A500080E090E00E946510CE0160E240E050E0FE
:105A60000E94181ECE0161E240E050E00E94181E24
:105A7000CE0160E340E050E00E94181ECE0161E3D9
:105A800044E054E00E94181ECE0162E343E050E07F
:105A90000E94181ECE0165E345E054E00E94181EE6
:105AA000CE0166E348E058E00E94181ECE0167E38D
:105AB00047E054E00E94181ECE0168E343E053E043
:105AC0000E94181ECE0169E347E057E00E94181EAD
:105AD000CE016CE344E055E00E94181ECE016DE358
